:060000000A128A110C280F
:10000800FE00030EF4000A08F5000A128A117A2984
:100018000A128A110F28F601F70183010A128A11C0
:10002800C029022983160317080801388800831697
:100038000313050801388500C330831203139F0595
:100048003529831603170808023888008316031316
:10005800050802388500831203131F08C3390438C2
:100068009F0035298316031708080438880083166B
:100078000313050804388500831203131F08C339C6
:1000880008389F00352983160317080808388800A0
:1000980083160313050808388500831203131F0805
:1000A800C3390C389F003529831603170808103800
:1000B800880083160313050820388500831203136C
:1000C8001F08C33910389F003529831603170808FD
:1000D8002038880083160313090801388900831221
:1000E80003131F08C33914389F00352983160317D3
:1000F8000808403888008316031309080238890065
:10010800831203131F08C33918389F003529831633
:100118000317080880388800831603130908043871
:100128008900831203131F08C3391C389F0035291F
:100138008316031709080138890083160313060874
:1001480004388600831203131F08C33920389F0020
:100158003529831603170908023889008316031303
:10016800060808388600831203131F08C339243889
:100178009F00352983160317090804388900831658
:100188000313060802388600831203131F08C339B5
:1001980028389F003529831603170908083889006D
:1001A80083160313060810388600831203131F08EA
:1001B800C3392C389F0035298316031709081038CE
:1001C8008900831603130608013886008312031377
:1001D8001F08C33930389F003529831603170908CB
:1001E80020388900831603130608203886008312F6
:1001F80003131F08C33934389F00352983120313AA
:100208002108003A0319092935292008003A031959
:100218001628013A03192528033A03193628013A02
:1002280003194728073A03195828013A0319692876
:10023800033A03197A28013A03198B280F3A03194C
:100248009C28013A0319AD28033A0319BE28013A3C
:100258000319CF28073A0319E028013A0319F128AE
:100268003529831603139F131F129F12831203133A
:100278001F083F3980389F001F1420308312031352
:10028800A200A20B45290000831203130C13831646
:1002980003130C170B178B17080083160317880115
:1002A80089018316031386018801831203138601CB
:1002B80088018B170B178C11831603138C15851661
:1002C80083120313A001A101A20124300A128A118A
:1002D800A2210A128A11003083120313A000A10080
:1002E8000A128A1115200A128A11080083120313B0
:1002F8008C1D7F298029892976080A128A11E7210D
:100308000A128A11831203138C110C1F8C298D2950
:100318009B290A128A11DD210A128A117108F70035
:100328007008F60076088312031386000C1375080C
:100338008A00740E8300FE0E7E0E090083120313DA
:10034800A30083160313871283120313231DAD29F9
:10035800AE29B42922088316031394008715BA29F5
:1003680020082204831603139400871183120313B1
:1003780023082104940008000A128A1151210A1244
:100388008A11831203139F18CA29CB29C5291A3049
:1003980083120313A500F730A400A40BD129A50BE1
:1003A800D129D629831203139F14C5290A128A1149
:1003B8000C28831203131E08F200F3017208F000E0
:1003C8007308F1000800F00070088312031393000B
:0203D80008001B
:08400000FF3FFF3FFF3FFF3FC0
:04400E00D420FF3F7C
:00000001FF
