:060000000A128A110C280F
:10000800FE00030EF0000A08F1000A128A15EB2B15
:100018000A128A110F2883132030840050300A12E4
:100028008A1549230A128A1183010A128A111C2887
:100038000A128A1542240A128A110A128A152425DC
:100048000A128A11F32A2A032B04031D2C282D28AF
:100058000E2B0A128A155A230A128A11D030F2007E
:100068000030F3000A128A156C230A128A11003034
:10007800F200F3000A128A156C230A128A110A1276
:100088008A1551230A128A11D130F2000030F30088
:100098000A128A156C230A128A110030F200F30042
:1000A8000A128A1514240A128A1173088312031378
:1000B800CF007208CE000A128A1563230A128A1129
:1000C800831203134F08F3004E08F2000A128A1530
:1000D80069250A128A11730883120313CF00720864
:1000E800CE000A128A155A230A128A11D030F20059
:1000F8000030F3000A128A156C230A128A110030A4
:10010800F200F3000A128A156C230A128A1183126C
:1001180003134F08F3004E08F2000A128A156C23E5
:100128000A128A110A128A1563230A128A11831283
:100138000313AA01AB010E2B2A032B04031DA528C8
:10014800A6280E2B0A128A155A230A128A11D030B1
:10015800F2000030F3000A128A156C230A128A1181
:100168000130F2000030F3000A128A156C230A12DB
:100178008A110A128A1551230A128A11D130F20003
:100188000030F3000A128A156C230A128A11003013
:10019800F200F3000A128A1514240A128A1173084D
:1001A80083120313CD007208CC000A128A15632348
:1001B8000A128A11831203134D08F3004C08F20047
:1001C8000A128A1569250A128A1173088312031301
:1001D800CD007208CC000A128A155A230A128A1115
:1001E800D030F2000030F3000A128A156C230A128C
:1001F8008A110130F2000030F3000A128A156C23CC
:100208000A128A11831203134D08F3004C08F200F6
:100218000A128A156C230A128A110A128A15632394
:100228000A128A119B282A032B04031D1C291D2945
:100238000E2B0A128A155A230A128A11D030F2009C
:100248000030F3000A128A156C230A128A11023050
:10025800F2000030F3000A128A156C230A128A1180
:100268000A128A1551230A128A11D130F20000307D
:10027800F3000A128A156C230A128A110030F20060
:10028800F3000A128A1514240A128A1173088312B9
:100298000313CB007208CA000A128A1563230A12D4
:1002A8008A11831203134B08F3004A08F2000A125A
:1002B8008A1572260A128A11730883120313CB0057
:1002C8007208CA000A128A155A230A128A11D030F3
:1002D800F2000030F3000A128A156C230A128A1100
:1002E8000230F2000030F3000A128A156C230A1259
:1002F8008A11831203134B08F3004A08F2000A120A
:100308008A156C230A128A110A128A1563230A12A3
:100318008A119B282A032B04031D932994290E2B49
:100328000A128A155A230A128A11D030F2000030B4
:10033800F3000A128A156C230A128A110430F2009B
:100348000030F3000A128A156C230A128A110A1265
:100358008A1551230A128A11D130F2000030F300B5
:100368000A128A156C230A128A110030F200F3006F
:100378000A128A1514240A128A11730883120313A5
:10038800C9007208C8000A128A1563230A128A1162
:10039800831203134908F3004808F2000A128A1569
:1003A80035270A128A11730883120313C9007208C9
:1003B800C8000A128A155A230A128A11D030F2008C
:1003C8000030F3000A128A156C230A128A110430CD
:1003D800F2000030F3000A128A156C230A128A11FF
:1003E800831203134908F3004808F2000A128A1519
:1003F8006C230A128A110A128A1563230A128A11B7
:100408009B282A032B04031D0A2A0B2A0E2B0A12E7
:100418008A155A230A128A11D030F2000030F300EC
:100428000A128A156C230A128A110530F20000306C
:10043800F3000A128A156C230A128A110A128A1505
:1004480051230A128A11D130F2000030F3000A1247
:100458008A156C230A128A110030F200F3000A127E
:100468008A1514240A128A11730883120313C70009
:100478007208C6000A128A1563230A128A118312A7
:1004880003134708F3004608F2000A128A15D32618
:100498000A128A11730883120313C7007208C60070
:1004A8000A128A155A230A128A11D030F200003033
:1004B800F3000A128A156C230A128A110530F20019
:1004C8000030F3000A128A156C230A128A1183126B
:1004D80003134708F3004608F2000A128A156C2332
:1004E8000A128A110A128A1563230A128A119B2892
:1004F8002A032B04031D812A822A0E2B0A128A152D
:100508005A230A128A11D030F2000030F3000A127E
:100518008A156C230A128A110630F2000030F300A3
:100528000A128A156C230A128A110A128A15512393
:100538000A128A11D130F2000030F3000A128A152B
:100548006C230A128A110030F200F3000A128A158D
:1005580014240A128A11730883120313C50072083F
:10056800C4000A128A1563230A128A11831203131C
:100578004508F3004408F2000A128A15C1250A1238
:100588008A11730883120313C5007208C4000A1283
:100598008A155A230A128A11D030F2000030F3006B
:1005A8000A128A156C230A128A110630F2000030EA
:1005B800F3000A128A156C230A128A118312031394
:1005C8004508F3004408F2000A128A156C230A123F
:1005D8008A110A128A1563230A128A119B28831228
:1005E80003132908003A0319FA2A0E2B2808003A9F
:1005F80003192728013A0319A028033A03191729D0
:10060800013A03198E29073A0319052A013A0319F1
:100618007C2A0E2B0A128A155A230A128A11503084
:10062800F2000030F3000A128A156C230A128A11AC
:100638000030F200F3000A128A156C230A128A119C
:100648000A128A1563230A128A11033083120313CC
:10065800DE009730DD00DD0B2F2BDE0B2F2B0A126F
:100668008A155A230A128A115130F2000030F30019
:100678000A128A156C230A128A110030F200F3005C
:100688000A128A1514240A128A1173088312031392
:10069800A7007208A6000A128A1563230A128A1193
:1006A800033083120313DE009730DD00DD0B5A2B75
:1006B800DE0B5A2B0A128A155A230A128A11D030D5
:1006C800F2000030F3000A128A156C230A128A110C
:1006D8000030F200F3000A128A156C230A128A11FC
:1006E8000A128A1551230A128A11D130F2000030F9
:1006F800F3000A128A156C230A128A110030F200DC
:10070800F3000A128A1514240A128A117308831234
:100718000313CF007208CE000A128A1563230A1247
:100728008A110A128A155A230A128A11D030F20045
:100738000030F3000A128A156C230A128A1101305C
:10074800F2000030F3000A128A156C230A128A118B
:100758000A128A1551230A128A11D130F200003088
:10076800F3000A128A156C230A128A110030F2006B
:10077800F3000A128A1514240A128A1173088312C4
:100788000313CD007208CC000A128A1563230A12DB
:100798008A110A128A155A230A128A11D030F200D5
:1007A8000030F3000A128A156C230A128A110230EB
:1007B800F2000030F3000A128A156C230A128A111B
:1007C8000A128A1551230A128A11D130F200003018
:1007D800F3000A128A156C230A128A110030F200FB
:1007E800F3000A128A1514240A128A117308831254
:1007F8000313CB007208CA000A128A1563230A126F
:100808008A110A128A155A230A128A11D030F20064
:100818000030F3000A128A156C230A128A11043078
:10082800F2000030F3000A128A156C230A128A11AA
:100838000A128A1551230A128A11D130F2000030A7
:10084800F3000A128A156C230A128A110030F2008A
:10085800F3000A128A1514240A128A1173088312E3
:100868000313C9007208C8000A128A1563230A1202
:100878008A110A128A155A230A128A11D030F200F4
:100888000030F3000A128A156C230A128A11053007
:10089800F2000030F3000A128A156C230A128A113A
:1008A8000A128A1551230A128A11D130F200003037
:1008B800F3000A128A156C230A128A110030F2001A
:1008C800F3000A128A1514240A128A117308831273
:1008D8000313C7007208C6000A128A1563230A1296
:1008E8008A110A128A155A230A128A11D030F20084
:1008F8000030F3000A128A156C230A128A11063096
:10090800F2000030F3000A128A156C230A128A11C9
:100918000A128A1551230A128A11D130F2000030C6
:10092800F3000A128A156C230A128A110030F200A9
:10093800F3000A128A1514240A128A117308831202
:100948000313C5007208C4000A128A1563230A1229
:100958008A11831203134E0E0F39C2004F0EF0395D
:10096800C2044F0E0F39C300F030C31D0030C3045A
:100978000F304E05C00000304F05C1004C0E0F3936
:10098800BE004D0EF039BE044D0E0F39BF00F030D9
:10099800BF1D0030BF040F304C05BC0000304D05B2
:1009A800BD004A0E0F39BA004B0EF039BA044B0E8F
:1009B8000F39BB00F030BB1D0030BB040F304A05B7
:1009C800B80000304B05B900480E0F39B600490E83
:1009D800F039B604490E0F39B700F030B71D0030B2
:1009E800B7040F304805B40000304905B500460E7D
:1009F8000F39B200470EF039B204470E0F39B30071
:100A0800F030B31D0030B3040F304605B00000309D
:100A18004705B100440E0F39AE00450EF039AE045B
:100A2800450E0F39AF00F030AF1D0030AF040F3066
:100A38004405AC0000304505AD006430D0000030FE
:100A4800D1002708D3002608D2000A128A11782775
:100A58000A128A11831203135108A5005008A40032
:100A68000A30D0000030D1002708F5002608F4002D
:100A78006430F2000030F3000A128A1519260A12AF
:100A88008A11730883120313D3007208D2000A1262
:100A98008A1178270A128A11831203135108A300B6
:100AA8005008A2002708F5002608F4006430F20078
:100AB8000030F3000A128A1519260A128A117308DF
:100AC80083120313E0007208DF000A30F2000030DE
:100AD800F3006008F5005F08F4000A128A15192669
:100AE8000A128A11730883120313A1007208A00066
:100AF8000A128A1583230A128A11F601F60A0130AE
:100B08000A128A15A6230A128A1101300A128A15B6
:100B1800C6230A128A110830F60001300A128A1513
:100B2800A6230A128A110330831203132806290404
:100B3800031D9F2DA02DA62D3E300A128A15902345
:100B48000A128A11831203133708F3003608F200D9
:100B58000A128A15AB240A128A110A128A159023DE
:100B68000A128A11831203133508F3003408F200BD
:100B78000A128A15AB240A128A110A128A159023BE
:100B88000A128A112F300A128A1590230A128A1122
:100B980004308312031328062904031DD42DD52DF0
:100BA800DB2D3E300A128A1590230A128A1183120D
:100BB80003133308F3003208F2000A128A15AB2433
:100BC8000A128A110A128A1590230A128A118312AC
:100BD80003133108F3003008F2000A128A15AB2417
:100BE8000A128A110A128A1590230A128A112F30C2
:100BF8000A128A1590230A128A11053083120313E8
:100C080028062904031D092E0A2E102E3E300A122A
:100C18008A1590230A128A11831203132F08F300EE
:100C28002E08F2000A128A15AB240A128A110A1237
:100C38008A1590230A128A11831203132D08F300D0
:100C48002C08F2000A128A15AB240A128A110A1219
:100C58008A1590230A128A11F601F60A02300A123E
:100C68008A15A6230A128A11831203132508F30092
:100C78002408F2000A128A15AB240A128A110A12F1
:100C88008A1590230A128A11831203132308F3008A
:100C98002208F2000A128A15AB240A128A110A12D3
:100CA8008A1590230A128A11831203132108F3006C
:100CB8002008F2000A128A15AB240A128A110A12B5
:100CC8008A1590230A128A110830F60002300A1297
:100CD8008A15A6230A128A110230831203132806E2
:100CE8002904031D782E792E7F2E3E300A128A158C
:100CF80090230A128A11831203133B08F3003A085F
:100D0800F2000A128A15AB240A128A110A128A15ED
:100D180090230A128A11831203133908F300380842
:100D2800F2000A128A15AB240A128A110A128A15CD
:100D380090230A128A113A300A128A1590230A124D
:100D48008A118312031328032904031DAC2EAD2E28
:100D5800B32E3E300A128A1590230A128A11831282
:100D680003133F08F3003E08F2000A128A15AB2469
:100D78000A128A110A128A1590230A128A118312FA
:100D880003133D08F3003C08F2000A128A15AB244D
:100D98000A128A110A128A1590230A128A113A3005
:100DA8000A128A1590230A128A118312031328083B
:100DB8002904031DE02EE12EE72E3E300A128A1583
:100DC80090230A128A11831203134308F30042087E
:100DD800F2000A128A15AB240A128A110A128A151D
:100DE80090230A128A11831203134108F300400862
:100DF800F2000A128A15AB240A128A110A128A15FD
:100E080090230A128A11F32A0A128A110C280B1746
:100E18008B178B150B10582F8316031306080138F0
:100E28008600811315141614772F831603130608EA
:100E380002388600811395149614772F83160313AE
:100E4800060804388600811315151615772F8316A2
:100E58000313060808388600811395159615772F11
:100E68008316031306081038860081131516161604
:100E7800772F8316031306082038860081139516EA
:100E88009616772F831603130608403886008113B9
:100E980015171617772F8316031306088038860050
:100EA800811395179617772F7308003A03195D2F4A
:100EB800772F7208003A0319102F013A0319192FD6
:100EC800033A0319222F013A03192B2F073A031962
:100ED800342F013A03193D2F033A0319462F013ADB
:100EE80003194F2F772F080083120313D501D11F41
:100EF8007E2F7F2F862FD009D109D00A0319D10A56
:100F0800D501D50AD31F892F8A2F932FD209D30948
:100F1800D20A0319D30A0130F9007908D506D60197
:100F2800D7015008510403199A2F9B2FD22FD401AF
:100F3800D40AA92F01300310D00DD10DFF3E031D97
:100F48009F2F0130F9007908D407D11FAC2FAD2F9E
:100F58009E2F01300310D60DD70DFF3E031DAE2F77
:100F680051085302031DBA2F50085202031CBD2F0B
:100F7800BE2FC52F5008D2025108031CD303D30239
:100F8800561401300310D10CD00CFF3E031DC62FA0
:100F98000130D402031DD12FD22FAD2F55080319CC
:100FA800D62FD72FDC2FD609D709D60A0319D70A87
:100FB8005708D1005608D0000800F5008312031323
:100FC800091075080A128A15E6240A128A11831272
:100FD800031389140B30F4006230F300F30BF22F83
:0E0FE800F40BF22F000083120313891008008F
:1010000008308A000408840A8207003450346F34A0
:08101000743431343A34003429
:1016920064008001840A04060319003404064A2BFC
:1016A2000A128A1576230A128A15831603139114D5
:1016B20008000A128A1576230A128A158316031362
:1016C200111408000A128A1576230A128A15831643
:1016D2000313111508000A128A1576230A128A15B5
:1016E200720883120313930008008316031314195C
:1016F2007B2B7C2B762B11081F39031D812B822B10
:10170200762B080000300A128A11E1270A128A1584
:1017120001300A128A11E1270A128A150800F40020
:1017220083120313091474080A128A15E6240A1292
:101732008A158312031389141A30F300F30B9F2BBB
:1017420000008312031389100800F7007703031DBA
:10175200AB2BAC2BB62B76087F3EF80078080A122A
:101762008A11E1270A128A15C52B02307706031D5A
:10177200BB2BBC2BC52B7608BF3EF80078080A129B
:101782008A11E1270A128A150800F700F501F6010D
:10179200DD2B7508770784000A128A1500200A12C9
:1017A2008A150A128A1590230A128A150130F50742
:1017B2000318F60A0030F6077508770784000A1244
:1017C2008A1500200A128A15003A031DE92BEA2B1A
:1017D200CA2B08000B1CEE2BEF2B0D2C83120313CC
:1017E2000618F42BF52BF92B0130AA000030AB00C0
:1017F2008618FC2BFD2B0C2C0130A8070318A90A14
:101802000030A907073028062904031D092C0A2CD9
:101812000C2CA801A9010B1071088A00700E83001C
:10182200FE0E7E0E09000A128A1576230A128A1506
:101832008316031391150A128A1576230A128A1542
:10184200831203131308F400F5017408F6007508F7
:10185200F7000A128A1576230A128A157203730494
:10186200031D342C352C392C8316031391123C2C76
:1018720083160313911611167708F3007608F20007
:101882000800831603178801890183160313850153
:10189200860188018901831203138501860188016B
:1018A20089010030F200F3000A128A110B270A1292
:1018B2008A150130F2000030F3000A128A110B2758
:1018C2000A128A15003083120313D8000130D700A0
:1018D2008630D600A030D5000A128A1573240A1267
:1018E2008A15080028308312031394008316031309
:1018F2009101831203135508D9005608DA005708DC
:10190200DB005808DC0002300310D90DDA0DDB0DC4
:10191200DC0DFF3E031D852C5C08F5005B08F4001E
:101922005A08F3005908F2000030F9007A30F80042
:101932001230F7000030F6000A128A1598270A12B0
:101942008A157208FF3E83160313930094018715CC
:1019520007160800C02C3030E52C3130E52C32302F
:10196200E52C3330E52C3430E52C3530E52C36309F
:10197200E52C3730E52C3830E52C3930E52C73086E
:10198200003A0319C52CE52C7208003A0319AC2C55
:10199200013A0319AE2C033A0319B02C013A031988
:1019A200B22C073A0319B42C013A0319B62C033AA4
:1019B2000319B82C013A0319BA2C0F3A0319BC2C9B
:1019C200013A0319BE2CE52C0800F200721CEA2C25
:1019D200EB2CEF2C831203130814F22C8312031343
:1019E2000810F21CF52CF62CF82C8814F92C88100F
:1019F200721DFC2CFD2CFF2C0815002D0811F21D68
:101A0200032D042D062D8815072D8811721E0A2D0F
:101A12000B2D0D2D08160E2D0812F21E112D122D52
:101A2200142D8816152D8812721F182D192D1B2D95
:101A320008171C2D0813F21F1F2D202D222D881789
:101A4200232D8813080000300A128A15E6240A1290
:101A52008A153430F700F130F600F60B2E2DF70B15
:101A62002E2D332D30300A128A11E1270A128A15DF
:101A72000D30F700FB30F600F60B3D2DF70B3D2D38
:101A8200422D30300A128A11E1270A128A151D30BE
:101A9200F7009130F600F60B4C2DF70B4C2D303041
:101AA2000A128A11E1270A128A1538300A128A119B
:101AB200E1270A128A150C300A128A11E1270A124A
:101AC2008A1506300A128A11E1270A128A150800BD
:101AD200720E0F39FA00730EF039FA04730E0F39D1
:101AE200FB00F030FB1D0030FB040F307205F800E4
:101AF20000307305F9007808013EF40079080318F4
:101B0200013E003EF5000A3074067504031D8A2D5D
:101B12008B2D9D2DF801F9010130FA070318FB0AFC
:101B22000030FB0706307A067B04031D992D9A2D9F
:101B3200A32DFA01FB01A32D0130F8070318F90ABE
:101B42000030F9077B08F5007A08F400F40EF50E70
:101B5200F030F50574080F39F504F030F405F03073
:101B62007405FA0000307505FB0078087A04F60067
:101B720079087B04F7007708F3007608F200080082
:101B8200720E0F39FA00730EF039FA04730E0F3920
:101B9200FB00F030FB1D0030FB040F307205F80033
:101BA20000307305F9007808013EF4007908031843
:101BB200013E003EF5000A3074067504031DE22D55
:101BC200E32DF52DF801F9010130FA070318FB0A9C
:101BD2000030FB070A307A067B04031DF12DF22D3B
:101BE200FB2DFA01FB01FB2D0130F8070318F90A5E
:101BF2000030F9077B08F5007A08F400F40EF50EC0
:101C0200F030F50574080F39F504F030F405F030C2
:101C12007405FA0000307505FB0078087A04F600B6
:101C220079087B04F7007708F3007608F2000800D1
:101C3200F801F51F1D2E1E2E252EF409F509F40AB2
:101C42000319F50AF801F80AF31F282E292E2E2E61
:101C5200F209F309F20A0319F30A72087304031969
:101C6200332E342E632EF701F70A422E0130031071
:101C7200F20DF30DFF3E031D382E0130F6007608FB
:101C8200F707F31F452E462E372E73087502031DE4
:101C92004C2E72087402031C4F2E502E562E7208C0
:101CA200F4027308031CF503F50201300310F30C70
:101CB200F20CFF3E031D572E0130F702031D622E68
:101CC200632E462E78080319672E682E6D2EF409AE
:101CD200F509F40A0319F50A7508F3007408F2000D
:101CE2000800720E0F39F800730EF039F804730E03
:101CF2000F39F900F030F91D0030F9040F30720588
:101D0200FA0000307305FB007A08013EF4007B08FC
:101D12000318013E003EF5000A3074067504031DE7
:101D2200932E942E9D2EFA01FB010130F807031821
:101D3200F90A0030F907B52E0130FA070318FB0A39
:101D42000030FB07023078067904031DA92EAA2E63
:101D5200B52E04307A067B04031DB02EB12EB52EAB
:101D6200FA01FB01F801F9017908F5007808F4009D
:101D7200F40EF50EF030F50574080F39F504F03065
:101D8200F405F0307405F80000307505F9007A08A2
:101D92007804F6007B087904F7007708F3007608E8
:101DA200F2000800720E0F39F800730EF039F804D1
:101DB200730E0F39F900F030F91D0030F9040F30BD
:101DC2007205FA0000307305FB007A08013EF40048
:101DD2007B080318013E003EF5000A3074067504C4
:101DE200031DF42EF52EFE2EFA01FB010130F80739
:101DF2000318F90A0030F907172F0130FA07031800
:101E0200FB0A0030FB0778037904031D092F0A2F10
:101E1200172F03307A067B04031D102F112F172F63
:101E22000130FA000030FB00F801F9017908F500F1
:101E32007808F400F40EF50EF030F50574080F3949
:101E4200F504F030F405F0307405F8000030750543
:101E5200F9007A087804F6007B087904F70077081D
:101E6200F3007608F2000800720E0F39F800730EC4
:101E7200F039F804730E0F39F900F030F91D003013
:101E8200F9040F307205FA0000307305FB007A087E
:101E9200013EF4007B080318013E003EF5000A30C3
:101EA20074067504031D562F572F602FFA01FB018C
:101EB2000130F8070318F90A0030F9077A2F0130C8
:101EC200FA070318FB0A0030FB070330780679048F
:101ED200031D6C2F6D2F7A2F02307A067B04031DAF
:101EE200732F742F7A2F0130FA000030FB00F801B3
:101EF200F9017908F5007808F400F40EF50EF030D7
:101F0200F50574080F39F504F030F405F030740566
:101F1200F80000307505F9007A087804F6007B08AD
:101F22007904F7007708F3007608F2000800003021
:101F320083120313D3000030D2000030D1000030EE
:101F4200D00075087404730472040319A92FAA2F10
:101F5200F72FD401D40ABA2F0130FA000310F20D80
:101F6200F30DF40DF50DFA0BAF2F0130FA007A08DC
:101F7200D407F51FBD2FBE2FAD2F0130FA0003107D
:101F8200D00DD10DD20DD30DFA0BC02F75087902E9
:101F9200031DD52F74087802031DD52F730877020D
:101FA200031DD52F72087602031CD82FD92FE82FD4
:101FB2007208F6027308031C730FF7027408031CFD
:101FC200740FF8027508031C750FF90250140130E2
:101FD2000310F50CF40CF30CF20CFF3E031DE92F79
:101FE2000130D402031DF62FF72FBE2F5308F50040
:0E1FF2005208F4005108F3005008F2000800F5
:08400000FF3FFF3FFF3FFF3FC0
:04400E00D420FF3F7C
:00000001FF
