:060000000A128A110C280F
:10000800FE00030EF6000A08F7000A128A11ED290D
:100018000A128A110F28F801F901FA01FB01FC0103
:10002800FD0183120313AB01AC01AD01AE01AF01B9
:10003800B001B101B20183010A128A113A2B1029C9
:100048008316031708080138880083160313050868
:1000580001388500C330831203139F054329831693
:1000680003170808023888008316031305080238A6
:100078008500831203131F08C33904389F004329DE
:100088008316031708080438880083160313050825
:1000980004388500831203131F08C33908389F00EA
:1000A80043298316031708080838880083160313A2
:1000B800050808388500831203131F08C3390C3854
:1000C8009F004329831603170808103888008316F1
:1000D8000313050820388500831203131F08C3394A
:1000E80010389F0043298316031708082038880012
:1000F80083160313090801388900831203131F08A4
:10010800C33914389F004329831603170808403859
:100118008800831603130908023889008312031321
:100128001F08C33918389F00432983160317080886
:10013800803888008316031309080438890083125D
:1001480003131F08C3391C389F004329831603175C
:100158000908013889008316031306080438860045
:10016800831203131F08C33920389F0043298316BD
:10017800031709080238890083160313060808388C
:100188008600831203131F08C33924389F004329AC
:100198008316031709080438890083160313060811
:1001A80002388600831203131F08C33928389F00BA
:1001B800432983160317090808388900831603138F
:1001C800060810388600831203131F08C3392C3819
:1001D8009F004329831603170908103889008316DE
:1001E8000313060801388600831203131F08C33956
:1001F80030389F00432983160317090820388900DF
:1002080083160313060820388600831203131F0879
:10021800C33934389F004329831203132108003A55
:100228000319172943292008003A03192428013AF9
:1002380003193328033A03194428013A03195528A6
:10024800073A03196628013A03197728033A03196C
:100258008828013A031999280F3A0319AA28013A5C
:100268000319BB28033A0319CC28013A0319DD28DE
:10027800073A0319EE28013A0319FF284329831680
:1002880003139F131F129F12831203131F083F3972
:1002980080389F001F14203083120313A200A20B82
:1002A80053290000831203130C13831603130C172E
:1002B8000B178B170800B329C030A0000030A1002D
:1002C800EC29F930A0000030A100EC29A430A000EE
:1002D8000030A100EC29B030A0000030A100EC29CA
:1002E8009930A0000030A100EC299230A000003025
:1002F800A100EC298230A0000030A100EC29F830E0
:10030800A0000030A100EC298030A0000030A1003E
:10031800EC299030A0000030A100EC298830A00022
:100328000030A100EC298330A0000030A100EC29A6
:10033800C630A0000030A100EC29A130A000003098
:10034800A100EC298630A0000030A100EC298E30F5
:10035800A0000030A100EC29A001A101EC29831222
:1003680003132108003A0319BA29B0292008003AD2
:1003780003196029013A03196529033A03196A29FF
:10038800013A03196F29073A03197429013A031925
:100398007929033A03197E29013A031983290F3A67
:1003A80003198829013A03198D29033A0319922957
:1003B800013A03199729073A03199C29013A0319A5
:1003C800A129033A0319A629013A0319AB29B0292F
:1003D80008000B1DF029F129262A8312031388012E
:1003E800870178087904031DFA29FB29052A7A0868
:1003F800870088160130F8070318F90A0030F90752
:10040800102A78037904031D0A2A0B2A102A2D08BA
:1004180087000816F801F9012C08803AF4007D08D5
:10042800803A7402031D1A2A7C082B0203181D2A1D
:100438001E2A222A831203138817252A83120313DC
:1004480088130B110B1C292A2A2A492A8312031301
:1004580006182F2A302A3B2A0130F4007408850731
:100468000508F400F5017408AB007508AC0086189F
:100478003E2A3F2A482A013085020508F400F50182
:100488007408AB007508AC000B10831203130C1F23
:100498004E2A4F2A5B2A0A128A11D2230A128A117B
:1004A8007108FD007008FC00831203130C13770811
:1004B8008A00760E8300FE0E7E0E09000B178B173E
:1004C8008B150B10AF2A8316031306080138860014
:1004D800811315141614D02A83160313060802383C
:1004E8008600811395149614D02A831603130608E0
:1004F80004388600811315151615D02A83160313A0
:10050800060808388600811395159615D02A831693
:100518000313060810388600811315161616D02AFC
:10052800831603130608203886008113951696163D
:10053800D02A83160313060840388600811315173E
:100548001617D02A831603130608803886008113ED
:1005580095179617D02A831203132108003A031916
:10056800B62AD02A2008003A0319672A013A031943
:10057800702A033A0319792A013A0319822A073A99
:1005880003198B2A013A0319942A033A03199D2A5D
:10059800013A0319A62AD02A080083120313A601D8
:1005A800A11FD72AD82ADF2AA009A109A00A03195E
:1005B800A10AA601A60AA31FE22AE32AEC2AA20995
:1005C800A309A20A0319A30A0130A4002408A60655
:1005D800A701A801200821040319F32AF42A2B2BC8
:1005E800A501A50A022B01300310A00DA10DFF3EA5
:1005F800031DF82A0130A4002408A507A11F052B14
:10060800062BF72A01300310A70DA80DFF3E031D86
:10061800072B21082302031D132B20082202031C89
:10062800162B172B1E2B2008A2022108031CA3033C
:10063800A302271401300310A10CA00CFF3E031DD8
:100648001F2B0130A502031D2A2B2B2B062B260856
:1006580003192F2B302B352BA709A809A70A031933
:10066800A80A2808A1002708A00008000A128A1171
:100678008E230A128A11103083120313A00000304F
:10068800A1007D08A3007C08A2000A128A11D122C9
:100698000A128A11831203132108B2002008B1003C
:1006A8003208A1003108A0000A128A115F210A123B
:1006B8008A11831203132108FB002008FA000F3067
:1006C8007C05AF0000307D05B0003008A1002F0880
:1006D800A0000A128A115F210A128A1183120313D9
:1006E8002108AE002008AD009F187B2B7C2B3F2BE8
:1006F8001A3083120313AA00F730A900A90B822B22
:10070800AA0B822B872B831203139F143F2B0A12E9
:100718008A110C288316031789018801831603138D
:1007280085018601870188018901831203138501E8
:1007380086018701880189017030831603138F04AD
:100748000F14811281110108F83906388100FA3036
:100758008312031381000B118B160B138B170030B8
:10076800A000A1000A128A1162220A128A1101301D
:1007780083120313A0000030A1000A128A1162221A
:100788000A128A11083083120313A0000030A10056
:100798000A128A1123200A128A11080083120313ED
:1007A8001E08F200F3017208F0007308F100080057
:08400000FF3FFF3FFF3FFF3FC0
:04400E00D420FF3F7C
:00000001FF
