:060000000A128A11DA2F3A
:10000A000030FC000030FB000030FA000030F9003C
:10001A0073087204710470040319142815286228DD
:10002A00FD01FD0A25280130F8000310F00DF10D3D
:10003A00F20DF30DF80B1A280130F8007808FD07C5
:10004A00F31F2828292818280130F8000310F90D71
:10005A00FA0DFB0DFC0DF80B2B2873087702031D14
:10006A00402872087602031D402871087502031D94
:10007A00402870087402031C432844285328700837
:10008A00F4027108031C710FF5027208031C720F47
:10009A00F6027308031C730FF70279140130031078
:1000AA00F30CF20CF10CF00CFF3E031D5428013046
:1000BA00FD02031D6128622829287C08F3007B08B9
:1000CA00F2007A08F1007908F00008000A168A118D
:1000DA0071210A128A11D030F0000030F1000A169C
:1000EA008A1183210A128A110030F000F1000A16DF
:1000FA008A1183210A128A110A168A1168210A12A0
:10010A008A11D130F0000030F1000A168A118321D9
:10011A000A128A110030F000F1000A168A118222AE
:10012A000A128A11710883120313EF007008EE0095
:10013A000A168A117A210A128A110A168A1171215B
:10014A000A128A11D030F0000030F1000A168A1122
:10015A0083210A128A110130F0000030F1000A16D8
:10016A008A1183210A128A110A168A1168210A122F
:10017A008A11D130F0000030F1000A168A11832169
:10018A000A128A110030F000F1000A168A1182223E
:10019A000A128A11710883160313CA007008C9006B
:1001AA000A168A117A210A128A110A168A117121EB
:1001BA000A128A11D030F0000030F1000A168A11B2
:1001CA0083210A128A110230F0000030F1000A1667
:1001DA008A1183210A128A110A168A1168210A12BF
:1001EA008A11D130F0000030F1000A168A118321F9
:1001FA000A128A110030F000F1000A168A118222CE
:10020A000A128A11710883160313C8007008C700FE
:10021A000A168A117A210A128A11831203136E0EA0
:10022A000F3983160313B400831203136F0EF039C8
:10023A0083160313B404831203136F0E0F39831644
:10024A000313B500F030B51D0030B5040F3083122A
:10025A0003136E0583160313B200003083120313CF
:10026A006F0583160313B300490E0F39B0004A0E07
:10027A00F039B0044A0E0F39B100F030B11D003028
:10028A00B1040F304905AE0000304A05AF00470EF1
:10029A000F39AC00480EF039AC04480E0F39AD00E6
:1002AA00F030AD1D0030AD040F304705AA00003014
:1002BA004805AB002D08F1002C08F0000A168A1137
:1002CA00BC230A128A1183160313B8002B08F10003
:1002DA002A08F0000A168A11BC230A128A11831608
:1002EA000313B9003A30BA003108F1003008F000BF
:1002FA000A168A11BC230A128A1183160313BB0039
:10030A002F08F1002E08F0000A168A11BC230A12DF
:10031A008A1183160313BC003A30BD003508F10078
:10032A003408F0000A168A11BC230A128A118316AD
:10033A000313BE003308F1003208F0000A168A11CE
:10034A00BC230A128A1183160313BF00F401F40AAC
:10035A0001300A168A11EC210A128A11B830F30008
:10036A000030F4000A168A1175240A128A1108004C
:10037A00831203136808013E83160313D100003069
:10038A0003180130D200D501D6018312031366087F
:10039A00F3006508F2006408F1006308F000003019
:1003AA00F7000030F6000030F5000030F4000A16BD
:1003BA008A11A6260A128A110318E429E529072AAE
:1003CA0083120313670884002D30831380000130E1
:1003DA00E9006908E7076608F3006508F20064089F
:1003EA00F1006308F0000A128A1500200A128A1125
:1003FA00730883120313E6007208E5007108E4002B
:10040A007008E3000030F3000030F2000030F10021
:10041A000030F000831203136608F7006508F6003F
:10042A006408F5006308F4000A168A11A6260A125F
:10043A008A110318212A222A912A4C2A413083122E
:10044A000313B0002030AF000030AE000030AD0022
:10045A006608B4006508B3006408B2006308B10016
:10046A000A128A1195240A128A1183120313300878
:10047A00E6002F08E5002E08E4002D08E300FF300F
:10048A0083160313D5070318D60AFF30D60783123B
:10049A0003136608F3006508F2006408F1006308B4
:1004AA00F0003F30F7008030F6000030F5000030F1
:1004BA00F4000A168A11A6260A128A11031C662A51
:1004CA00672A232A912A4130F3002030F2000030B3
:1004DA00F1000030F000831203136608F700650884
:1004EA00F6006408F5006308F4000A128A15CF239F
:1004FA000A128A11730883120313E6007208E500D0
:10050A007108E4007008E300013083160313D5076D
:10051A000318D60A0030D607831203136608F300BD
:10052A006508F2006408F1006308F0004130F70042
:10053A002030F6000030F5000030F4000A168A1167
:10054A00A6260A128A110318AB2AAC2A682A83162D
:10055A00031355085107D10056080318560A5207C3
:10056A00D2000130D3000030D4005308F000540800
:10057A00F1000030F11BFF30F200F30001300A16DF
:10058A008A1148270A128A11730883160313D000A6
:10059A007208CF007108CE007008CD00FB2A4130E6
:1005AA00F3002030F2000030F1000030F000831632
:1005BA0003135008F7004F08F6004E08F5004D08DF
:1005CA00F4000A128A15CF230A128A1173088316B5
:1005DA000313D0007208CF007108CE007008CD0056
:1005EA000130D3070318D40A0030D4075408803ADC
:1005FA0083120313E900831603135208803A831205
:10060A0003136902031D0D2B8316031351085302AA
:10061A00031C102B112BD42A831603135008F7003E
:10062A004F08F6004E08F5004D08F4004030F3007C
:10063A000030F2000030F1000030F0000A128A1592
:10064A00CF230A128A11730883120313CA0072088D
:10065A00C9007108C8007008C7006608CE0065089E
:10066A00CD006408CC006308CB000A128A15A825BD
:10067A000A128A11831203134A08E6004908E500A0
:10068A004808E4004708E3006608F3006508F2003A
:10069A006408F1006308F0004130F7002030F600EA
:1006AA000030F5000030F4000A168A11A6260A1254
:1006BA008A11031C612B622B742B3F3083120313A4
:1006CA00E6008030E5000030E4000030E30001304D
:1006DA0083160313D5070318D60A0030D6078316E4
:1006EA000313D61F792B7A2BC92B8312031367089E
:1006FA0084003030831380000130E9006908E7077D
:10070A00670884002E3080000130E9006908E70795
:10071A0083160313D21F922B932B9B2B510855023E
:10072A00D5005208031C520A5602D600FF30D300E5
:10073A00FF30D400B32B83120313670884003030D0
:10074A00831380000130E9006908E707FF30831648
:10075A000313D3070318D40AFF30D4075608803A84
:10076A0083120313E900831603135408803A831291
:10077A0003136902031DC52B83160313530855027D
:10078A00031CC82BC92BA02B83160313D301D40136
:10079A00782C831203136608F3006508F2006408D4
:1007AA00F1006308F0000A168A1130260A128A112B
:1007BA00710883160313CC007008CB00831203134D
:1007CA0067088400831603134B08303E83138000A6
:1007DA00013083120313E9006908E707831603133C
:1007EA0056085406031DFB2B55085306031DFE2B02
:1007FA00FF2B092C83120313670884002E30800014
:10080A000130E9006908E707831603134B08F00073
:10081A004C08F1000030F11BFF30F200F300013008
:10082A000A168A1148270A128A11730883160313B3
:10083A00D0007208CF007108CE007008CD005008B1
:10084A0083120313DE00831603134F088312031364
:10085A00DD00831603134E0883120313DC0083168C
:10086A0003134D0883120313DB006608E2006508D0
:10087A00E1006408E0006308DF000A168A110C220E
:10088A000A128A11831203135E08E6005D08E50066
:10089A005C08E4005B08E3004130B0002030AF00A0
:1008AA000030AE000030AD006608B4006508B30041
:1008BA006408B2006308B1000A128A1195240A1268
:1008CA008A11831203133008E6002F08E5002E0868
:1008DA00E4002D08E300013083160313D30703183D
:1008EA00D40A0030D4075408803A83120313E9006B
:1008FA00831603135208803A831203136902031DF5
:10090A008A2C8316031351085302031C8D2C8E2C38
:10091A00CE2B831203136708840083138001080017
:10092A008312031330088039BA003008B50035073E
:10093A00C000AF1FA12CA22CA32C401440080319FD
:10094A00A72CA82CB72C400A031DAC2CAD2CB52C17
:10095A000030B0000030AF000030AE000030AD0013
:10096A00AF17BF2C0030B0000030AF000030AE002F
:10097A000030AD0034088039B5003508BA063408AD
:10098A00B5003507BF00B31FCB2CCC2CCD2C3F14A0
:10099A003F080319D12CD22CE12C3F0A031DD62C77
:1009AA00D72CDF2C0030B4000030B3000030B20086
:1009BA000030B100B317E92C0030B4000030B300A6
:1009CA000030B2000030B1003F080319ED2CEE2CC4
:1009DA00F32C4008031DF22CF32CFC2C0030B00041
:1009EA000030AF000030AE000030AD00D92F2D0826
:1009FA00F00033080A168A1130220A128A11710885
:100A0A0083120313C6007008C5004508B500B60175
:100A1A00B701B8013808BE003708BD003608BC0067
:100A2A003508BB004608B500B601B701B801380859
:100A3A00C4003708C3003608C2003508C1002E08B2
:100A4A00F00032080A168A1130220A128A11710835
:100A5A0083120313C6007008C5004508B500B60125
:100A6A00B701B8013508BB07360803110318013E60
:100A7A000319402DBC07370803110318013E031957
:100A8A00472DBD07380803110318013E03194E2DDF
:100A9A00BE074608B500B601B701B8013508C10757
:100AAA00360803110318013E03195C2DC2073708E3
:100ABA0003110318013E0319632DC30738080311F4
:100ACA000318013E03196A2DC4072F08F0003108E4
:100ADA000A168A1130220A128A1171088312031324
:100AEA00C6007008C5004508B500B601B701B801CF
:100AFA003508BB07360803110318013E0319862D72
:100B0A00BC07370803110318013E03198D2DBD07D1
:100B1A00380803110318013E0319942DBE0746082D
:100B2A00B500B601B701B8013508C1073608031187
:100B3A000318013E0319A22DC2073708031103182F
:100B4A00013E0319A92DC307380803110318013EF2
:100B5A000319B02DC4070830B5000310BB0DBC0D36
:100B6A00BD0DBE0DB50BB22D2E08F00031080A16C8
:100B7A008A1130220A128A11710883120313C600DD
:100B8A007008C5004508B5004608B600B701B801A7
:100B9A003508BB07360803110318013E0319D62D81
:100BAA00BC07370803110318013E0319DD2DBD07E1
:100BBA00380803110318013E0319E42DBE072D0856
:100BCA00F00032080A168A1130220A128A117108B4
:100BDA0083120313C6007008C5004508B50046080D
:100BEA00B600B701B8013508BB0736080311031868
:100BFA00013E0319012EBC07370803110318013EF1
:100C0A000319082EBD07380803110318013E0319FA
:100C1A000F2EBE070830B5000310BB0DBC0DBD0D6D
:100C2A00BE0DB50B112E2D08F00031080A168A11D7
:100C3A0030220A128A11710883120313C60070083F
:100C4A00C5004508B5004608B600B701B801350821
:100C5A00BB07360803110318013E0319352EBC07DA
:100C6A00370803110318013E03193C2EBD07380843
:100C7A0003110318013E0319432EBE072E08F00084
:100C8A0033080A168A1130220A128A11710883124D
:100C9A000313C6007008C5004508B5004608B6002B
:100CAA00B701B8013508C107360803110318013E18
:100CBA000319602EC207370803110318013E0319EE
:100CCA00672EC307380803110318013E03196E2E55
:100CDA00C4072F08F00032080A168A1130220A12B5
:100CEA008A11710883120313C6007008C5004508EB
:100CFA00B5004608B600B701B8013508C10736087D
:100D0A0003110318013E03198B2EC207370803117A
:100D1A000318013E0319922EC3073808031103185A
:100D2A00013E0319992EC4072F08F00033080A164A
:100D3A008A1130220A128A11710883120313C6001B
:100D4A007008C5004508B5004608B600B701B801E5
:100D5A0008300310B50DB60DB70DB80DFF3E031DD3
:100D6A00AE2E3508C107360803110318013E0319D0
:100D7A00BF2EC207370803110318013E0319C62EF6
:100D8A00C307380803110318013E0319CD2EC407FF
:100D9A003B08B5003C08B6003D08B7003E08B8005D
:100DAA0018300310B80CB70CB60CB50CFF3E031D77
:100DBA00D62E3508C107360803110318013E031958
:100DCA00E72EC207370803110318013E0319EE2E56
:100DDA00C307380803110318013E0319F52EC40787
:100DEA000830B5000310BB0DBC0DBD0DBE0DB50B13
:100DFA00F72E40083F07B500B601B60D3508823E0A
:100E0A00C50036080318013EFF3EC600292F0130EF
:100E1A00B5000310C10DC20DC30DC40DB50B0E2FC5
:100E2A00BE1F182F192F1A2F41140130B5000310B5
:100E3A00BB0DBC0DBD0DBE0DB50B1C2FFF30C5077C
:100E4A000318C60AFF30C607C31F2C2F2D2F0C2FDD
:100E5A00BF01BE1F312F322F4E2FFF303B05B50089
:100E6A00FF303C05B600FF303D05B7007F303E0538
:100E7A00B80038083704360435040319452F462FBD
:100E8A00492FBF01BF0A4E2F411C4C2F4D2F4E2F09
:100E9A00462F3F080319522F532F842F0130C107C1
:100EAA00003003180130C207003003180130C307AD
:100EBA00003003180130C407441C642F652F842FA7
:100ECA004108B5004208B6004308B7004408B80014
:100EDA000130B900380DB80CB70CB60CB50CB90B0B
:100EEA006F2F3808C4003708C3003608C200350817
:100EFA00C1000130C5070318C60A0030C6074608F4
:100F0A00803AFF0080307F02031D8D2FFF3045029B
:100F1A00031C902F912F9C2F7F3083120313C40040
:100F2A008030C3000030C2000030C100CD2F8312D0
:100F3A0003134608803AFF0080307F02031DA72F63
:100F4A00013045020318AA2FAB2FB72F00308312A6
:100F5A000313C4000030C3000030C2000030C100D7
:100F6A00BA01CD2F831203134508C000FF30C10513
:100F7A00FF30C2057F30C3050030C405401CC62FB0
:100F8A00C72FC82FC3174008B5000310350CC4007B
:100F9A003A08B5003508C4044408B0004308AF0055
:100FAA004208AE004108AD00080083120313EA01AB
:100FBA00EB01EC01ED01EE01EF018313A030840097
:100FCA00CB300A168A1160210A128A1183179030CF
:100FDA008400D5300A168A1160210A128A1110304B
:100FEA00840070300A168A1160210A128A1183015C
:100FFA000A168A11142B73087204710470040319F7
:10100A00072808280A288030F306080000300A1644
:10101A008A11F7230A128A153430F500F130F400E8
:10102A00F40B1528F50B15281A2830300A168A11E0
:10103A00D2210A128A150D30F500FB30F400F40BA8
:10104A002428F50B2428292830300A168A11D2219F
:10105A000A128A151D30F5009130F400F40B33287A
:10106A00F50B332830300A168A11D2210A128A1552
:10107A0038300A168A11D2210A128A150C300A1639
:10108A008A11D2210A128A1506300A168A11D22129
:10109A000A128A15080083120313AB002130A70035
:1010AA00FC2825302C0603195B285C2866282B08A7
:1010BA0084002C08831780000130A3002308AB07A3
:1010CA00FC28A6016D28C030A3002308A60487289F
:1010DA000130A007FF30200784000A168A110A206F
:1010EA000A128A15AC00A300A4012408003A0319C5
:1010FA007F28FC282308003A03190C29753A03199A
:10110A006828FC282708840083130008A800840A9A
:10111A000008A9000230A3002308A707AC01AC0A03
:10112A002C08A3002307013E84000A168A110A200C
:10113A000A128A15A4000A168A110A200A128A15A6
:10114A00A50025082902031DAC2824082802031833
:10115A00AF28B028B128BB280130A3002308AC0768
:10116A0005302C06031DBA28BB2895282C08AA008E
:10117A00F3280A30F8000030F9002A08A3002307F0
:10118A00013E84000A168A110A200A128A15F00002
:10119A000A168A110A200A128A15F1002908F30090
:1011AA002808F2000A168A11B7240A128A15710849
:1011BA00FB007008FA000A168A1182230A128A159D
:1011CA007808303E83120313AC002B0884002C08E5
:1011DA00831780000130A3002308AB07FF30A30068
:1011EA002308AA072A0A031DFB28FC28BE28013067
:1011FA00A007FF30200784000A168A110A200A1263
:10120A008A15AC002C08031D0B290C2956282B081B
:10121A0084008317800108000A168A1171210A12B4
:10122A008A157230F0000030F1000A168A11832103
:10123A000A128A158C30F0000030F1000A168A1161
:10124A0083210A128A150A168A1168210A128A1536
:10125A007330F0000030F1000A168A1183210A1255
:10126A008A150030F000F1000A168A1182220A1249
:10127A008A1570088316031790000030F000F100F9
:10128A000A168A1182220A128A157008831603170F
:10129A0091000030F000F1000A168A1182220A1227
:1012AA008A1570088316031792000130F000003087
:1012BA00F1000A168A1182220A128A157008831608
:1012CA00031793000A168A117A210A128A158316BD
:1012DA000317100883120313AD00AE018316031718
:1012EA00110883120313AF00B0012F08B000AF0139
:1012FA002D082F04EC002E083004ED008316031786
:10130A00120883120313AD00AE01831603171308E4
:10131A0083120313AF00B0012F08B000AF012D08EC
:10132A002F04EA002E083004EB006A086C028316C8
:10133A000313B600831203136B08031C6B0A6D02B6
:10134A0083160313B700173083120313A0006D0826
:10135A00A2006C08A10096300A128A1550200A12BF
:10136A008A15173083120313A0006B08A2006A08BB
:10137A00A10040300A128A1550200A128A15173025
:10138A0083120313A000831603133708831203136F
:10139A00A20083160313360883120313A100103028
:1013AA000A128A1550200A128A15F401F40A023028
:1013BA000A168A11EC210A128A15FF3083120313C6
:1013CA006D020B3003196C020318EC29ED29FB2975
:1013DA000B30F3008030F4000A168A1175240A12C1
:1013EA008A1583160313A801A9010A2A1130F300EA
:1013FA008030F4000A168A1175240A128A150130FF
:10140A0083160313A8000030A90008000A168A11DF
:10141A0071210A128A157030F0000030F1000A16A4
:10142A008A1183210A128A15AC30F0000030F100CB
:10143A000A168A1183210A128A153330F000003005
:10144A00F1000A168A1183210A128A150030F00067
:10145A00F1000A168A1183210A128A150A168A11BC
:10146A007A210A128A15D03083160313D800C9309C
:10147A00D700D70B3E2AD80B3E2A0A168A117121A9
:10148A000A128A157030F0000030F1000A168A112B
:10149A0083210A128A157130F0000030F1000A1611
:1014AA008A1183210A128A150A168A1168210A12D8
:1014BA008A157130F0000030F1000A168A11832172
:1014CA000A128A150030F000F1000A168A118222E7
:1014DA000A128A150A168A117A210A128A150A1616
:1014EA008A1171210A128A157130F0000030F10058
:1014FA000A168A1183210A128A150130F000003077
:10150A00F1000A168A1182220A128A1570088316B5
:10151A000313E5000130F0000030F1000A168A11C9
:10152A0082220A128A15700883160313E600013014
:10153A00F0000030F1000A168A1182220A128A1576
:10154A00700883160313E7000130F0000030F10041
:10155A000A168A1182220A128A1570088316031340
:10156A00E8000130F0000030F1000A168A118222E8
:10157A000A128A15700883160313E9000130F00075
:10158A000030F1000A168A1182220A128A1570089E
:10159A0083160313EA000030F000F1000A168A11DC
:1015AA0082220A128A15700883160313EB000A16A0
:1015BA008A117A210A128A15831603136A08D70038
:1015CA00D801D901DA016908DB00DC015B08DC001B
:1015DA00DB015B08DD005C08DE00DF01E001680872
:1015EA000F39E100E201E301E40110300310E10DDB
:1015FA00E20DE30DE40DFF3E031DFB2A6108DD0742
:10160A0062080318620F0A2B0B2BDE076308031804
:10161A00630F102B112BDF0764080318640AE00715
:10162A005D08D7075E0803185E0F1C2B1D2BD80711
:10163A005F0803185F0F222B232BD90760080318B2
:10164A00600ADA075A08F3005908F2005808F1004C
:10165A005708F00000300A168A1148270A128A151C
:10166A00730883160313A3007208A2007108A1006D
:10167A007008A000C23083120313CA004830C900A0
:10168A000030C8000030C7004330B0004830AF0017
:10169A000030AE000030AD004930F3008030F20077
:1016AA000030F1000030F000831603132308F7001E
:1016BA002208F6002108F5002008F4000A128A150B
:1016CA00CF230A128A15730883120313B40072080F
:1016DA00B3007108B2007008B1000A128A11952489
:1016EA000A128A15831203133008CE002F08CD0080
:1016FA002E08CC002D08CB000A128A15A8250A123A
:10170A008A15831203134A0883160313A30083124C
:10171A000313490883160313A2008312031348080C
:10172A0083160313A10083120313470883160313B6
:10173A00A000230883120313E6008316031322086A
:10174A0083120313E500831603132108831203137C
:10175A00E40083160313200883120313E300C23044
:10176A00E7000230E8000A128A11BD210A128A151E
:10177A000C30F40001300A168A11EC210A128A157B
:10178A00C230F3000030F4000A168A1175240A12D6
:10179A008A1508007708803983120313A400770892
:1017AA00F8007807AB00F61FDB2BDC2BDD2B2B14A4
:1017BA002B080319E12BE22BF22B2B0A031DE62B34
:1017CA00E72BEF2B0030F7000030F6000030F50071
:1017DA000030F400F617F701FA2B0030F70000305A
:1017EA00F6000030F5000030F40073088039F80084
:1017FA007808A4067308F8007807AC00F21F062CD4
:10180A00072C082C2C142C0803190C2C0D2C1D2C1D
:10181A002C0A031D112C122C1A2C0030F300003054
:10182A00F2000030F1000030F000F217F301252C2D
:10183A000030F3000030F2000030F1000030F00018
:10184A007308720471047004031D2C2C2D2C462C71
:10185A000030F7000030F6000030F5000030F400E8
:10186A008030F6047F30F7042408F8007808F7047B
:10187A007708F3007608F2007508F1007408F000A2
:10188A00A72D2B08031D4A2C4B2C542C0030F30097
:10189A000030F2000030F1000030F000A72D2B08D4
:1018AA00F800F9017908FB002C087802FA00031CF9
:1018BA00FB037A087F3EA5007B080318013E003E21
:1018CA00A6007708A3007608A2007508A10074088C
:1018DA00A0000030F7000030F6000030F5000030BC
:1018EA00F4000030AA000030A9000030A80000303F
:1018FA00A700AC01D02C2C080319842C852CA52C0C
:10190A000130F8000310A00DA10DA20DA30DF80BD4
:10191A00872C0130F8000310F40DF50DF60DF70DC4
:10192A00F80B902CAA1F9A2C9B2C9C2C7414013017
:10193A00F8000310A70DA80DA90DAA0DF80B9E2CEF
:10194A0073082302031DB32C72082202031DB32C51
:10195A0071082102031DB32C70082002031CB62C47
:10196A00B72CCC2C2A177008A0027108031C710F1F
:10197A00BF2CC02CA1027208031C720FC52CC62CE6
:10198A00A2027308031C730FCB2CCC2CA3020130C8
:10199A00F8007808AC071A302C02031CD52CD62C78
:1019AA00802C23082204210420040319DD2CDE2CB8
:1019BA00FD2C2714FD2C0130F8000310F40DF50D51
:1019CA00F60DF70DF80BE22CAA1FEC2CED2CEE2CE1
:1019DA0074140130F8000310A70DA80DA90DAA0D63
:1019EA00F80BF02CFF30A5070318A60AFF30A6074C
:1019FA00F61F002D012DE02CAC01AA1F052D062D86
:101A0A00222DFF302705F800FF302805F900FF30A6
:101A1A002905FA007F302A05FB007B087A0479043D
:101A2A0078040319192D1A2D1D2DAC01AC0A222D8B
:101A3A00741C202D212D222D1A2D2C080319262D38
:101A4A00272D582D0130F407003003180130F5070F
:101A5A00003003180130F607003003180130F70789
:101A6A00771C382D392D582D7408F8007508F9009F
:101A7A007608FA007708FB000130FC007B0DFB0CAE
:101A8A00FA0CF90CF80CFC0B432D7B08F7007A08CA
:101A9A00F6007908F5007808F4000130A507031864
:101AAA00A60A0030A6072608803AFF0080307F0287
:101ABA00031D612DFF302502031C642D652D732D36
:101ACA00FF3083120313A5000030A6000030F70090
:101ADA000030F6000030F5000030F40083120313E2
:101AEA002608803AFF0080307F02031D7E2D0130D8
:101AFA0025020318812D822D8F2D83120313A50130
:101B0A00A6010030F7000030F6000030F500003082
:101B1A00F400A401831203132508AB002B1C962D95
:101B2A00972D992DF6179D2D7F30F8007808F60528
:101B3A002B08F8000310780CF7002408F80078083E
:101B4A00F7043D2C0800831203134A088039D70092
:101B5A004A08CF004F07D900C91FB42DB52DB62D9D
:101B6A00591459080319BA2DBB2DCB2D590A031D37
:101B7A00BF2DC02DC82D0030CA000030C90000306A
:101B8A00C8000030C700C917CA01D32D0030CA00E7
:101B9A000030C9000030C8000030C7004E08803944
:101BAA00D800580857060319DB2DDC2DDD2D5717F1
:101BBA004E08CF004F07D800CD1FE42DE52DE62DA6
:101BCA00581458080319EA2DEB2DFB2D580A031D4A
:101BDA00EF2DF02DF82D0030CE000030CD00003072
:101BEA00CC000030CB00CD17CE01032E0030CE0042
:101BFA000030CD000030CC000030CB00590858022C
:101C0A000318082E092E2F2E571F0C2E0D2E112EBB
:101C1A008030CF004F08D7065908DA005808D90093
:101C2A005A08D8004708DA004B08C7005A08CB0000
:101C3A004808DA004C08C8005A08CC004908DA00FB
:101C4A004D08C9005A08CD004A08DA004E08CA00F1
:101C5A005A08CE00DA015808CF00D0015008D20045
:101C6A0059084F02D100031CD2035208803AFF00E0
:101C7A0080307F02031D432E1A305102031C462E68
:101C8A00472E7E2E831203134A0849044804470448
:101C9A00031D502E522E0130532E0030DA00003030
:101CAA00CA000030C9000030C8000030C700580818
:101CBA00D900862E5A1C622E632E6A2E5A08CF002D
:101CCA0003104F0C0138DA006C2E0310DA0C471C93
:101CDA006F2E702E712EDA170130CF004A0DCA0C02
:101CEA00C90CC80CC70CCF0B732E0130CF004F089C
:101CFA00D9078312031358085902031C852E862E0E
:101D0A005F2E571B892E8A2ED32E5908031D8E2E1D
:101D1A008F2E982E0030CA000030C9000030C8004B
:101D2A000030C700FF2F4B08C7074C0803110318E0
:101D3A00013E0319A12EC8074D0803110318013EDD
:101D4A000319A82EC9074E0803110318013E0319E7
:101D5A00AF2ECA074A1CB22EB32E872F5A1CB62E94
:101D6A00B72EBE2E5A08CF0003104F0C0138DA00E6
:101D7A00C02E0310DA0C471CC32EC42EC52EDA1748
:101D8A000130CF004A0DCA0CC90CC80CC70CCF0BC6
:101D9A00C72E0130CF004F08D907872F4A08803A4B
:101DAA00FF004E08803A7F02031DE52E4D084902C6
:101DBA00031DE52E4C084802031DE52E4B08470279
:101DCA000318E82EE92E412FFF30CF00FF30D00054
:101DDA00FF30D100FF30D2004B08D3004C08D400AA
:101DEA004D08D5004E08D6004708D3024808031C00
:101DFA00480F002F012FD4024908031C490F062F50
:101E0A00072FD5024A08031C4A0F0C2F0D2FD602A2
:101E1A005308CF0754080318540F142F152FD0074F
:101E2A0055080318550F1A2F1B2FD10756080318E8
:101E3A00560AD2075208CA005108C9005008C800F9
:101E4A004F08C7008030CF004F08D706DA09DA0AF0
:101E5A005A08031D312F322F4F2F0130C707003088
:101E6A0003180130C807003003180130C9070030D1
:101E7A0003180130CA074F2F4B08C7024C08031C2E
:101E8A004C0FC8024D08031C4D0FC9024E08031C13
:101E9A004E0FCA024A08490448044704031D562F34
:101EAA00572F832F5A08031D5B2F5C2F832F003077
:101EBA00CA000030C9000030C8000030C700FF2F38
:101ECA000130CF000310C70DC80DC90DCA0DCF0BC5
:101EDA00672FDA1F712F722F732F47145A1C762F10
:101EEA00772F7A2F0314DA0D7C2F0310DA0D590895
:101EFA000319802F812F832F0130D902C91F862F02
:101F0A00872F652FD801DA1F8B2F8C2F9A2F5A080B
:101F1A007F390319912F922F952FD801D80A9A2F1A
:101F2A00471C982F992F9A2F922F580803199E2FE2
:101F3A009F2FD32F0130C707003003180130C8077D
:101F4A00003003180130C907003003180130CA07EE
:101F5A004A1CB02FB12FD32F4708CF004808D00012
:101F6A004908D1004A08D2000130D300520DD20CE0
:101F7A00D10CD00CCF0CD30BBB2F5208CA0051087E
:101F8A00C9005008C8004F08C700590A0319CE2FC4
:101F9A00CF2FD32F0130CF004F08D907590A031981
:101FAA00D72FD82FDD2F5908031DDC2FDD2FEB2F5C
:101FBA000030CA000030C9000030C8000030C70035
:101FCA005908031DE92FEA2FEB2FD701591CEE2FD1
:101FDA00EF2FF12FC917F52F7F30CF004F08C90512
:101FEA005908CF0003104F0CCA00D71FFD2FFE2F30
:101FFA00FF2FCA170800FF1B0A2883137F188317AD
:10200A000008840A0319FF0A080010308A0004082D
:10201A00840A82070034013400340A3400346434F8
:10202A000034E834033410342734643461347234AD
:10203A006B34203400346C34693467346834743453
:08204A00003425347534003424
:1022B400F000700883120313990008006400800181
:1022C400840A040603190034040661290A168A11D3
:1022D4008D210A168A1183160313911408000A1615
:1022E4008A118D210A168A1183160313111408000A
:1022F4000A168A118D210A168A11831603131115E1
:1023040008000A168A118D210A168A117008831290
:1023140003139300080083160313141992299329B5
:102324008D2911081F39031D982999298D29080021
:1023340083160313181218158316031787157008CC
:102344008316031399009A0198160800831603173D
:10235400871570088316031399009A0183120313D7
:102364009817181318168C12831603138C160B1750
:102374008B170800F20083120313091472080A165B
:102384008A11F7230A168A118312031389141A3047
:10239400F100F10BCB29000083120313891008000C
:1023A400F30083120313091073080A168A11F72322
:1023B4000A168A118312031389140B30F200623057
:1023C400F100F10BE329F20BE3290000831203135C
:1023D40089100800F5007503031DF129F229FC2971
:1023E40074087F3EF60076080A168A11D2210A166E
:1023F4008A110B2A02307506031D012A022A0B2AB0
:102404007408BF3EF60076080A168A11D2210A160D
:102414008A110800803083120313DE066208CA00A2
:102424006108C9006008C8005F08C7005E08CE00E4
:102434005D08CD005C08CC005B08CB000A128A154D
:10244400A8250A168A11831203134A08DE004908D4
:10245400DD004808DC004708DB000800F800F40150
:10246400F5017008F200F3017208F6007308F70032
:10247400781C3D2A3E2A442A7608F4070318F50AF4
:102484007708F50701300310F60DF70DFF3E031D25
:10249400452A0310F80C7808031D512A522A3A2AB7
:1024A4007508F1007408F00008008316031328036C
:1024B4002904031D5E2A5F2A7D2A2308F3002208CB
:1024C400F2002108F1002008F0000A168A113026D3
:1024D4000A168A117108803AFF0080307F02031DBA
:1024E400752A19307002031C782A792A7D2A8312EE
:1024F40003138617802A83120313861385010800A9
:102504000A168A118D210A168A118316031391154E
:102514000A168A118D210A168A11831203131308CD
:10252400F200F3017208F4007308F5000A168A1128
:102534008D210A168A1170037104031DA22AA32A8D
:10254400A72A831603139112AA2A8316031391163A
:1025540011167508F1007408F00008006830F300E3
:10256400E430F200F20BB42AF30BB42A00000A168A
:102574008A1171210A168A117030F0000030F100BE
:102584000A168A1183210A168A11BA30F000003023
:10259400F1000A168A1183210A168A110A168A1171
:1025A4007A210A168A114130F300EE30F200F20B60
:1025B400D92AF30BD92A00000800831603178801CF
:1025C4008901831603138501860188018901831219
:1025D400031385018601880189010030A3000130BD
:1025E400A2008630A100A030A0000A168A114A2356
:1025F4000A168A117030831603138F040F14CF3018
:10260400F0000030F1000A168A119A210A168A1184
:10261400CF30F0000030F1000A168A11A8210A1602
:102624008A1108000A168A11DF220A168A110A1270
:102634008A150B200A168A110A168A11B0220A1664
:102644008A110A168A11BE250A168A110A168A11D7
:10265400FB240A168A110A128A150B220A168A11F9
:102664000A128A1511210A168A110A128A116B207C
:102674000A168A110A168A1153250A168A110A168D
:102684008A1157220A168A112D2B0A128A11002840
:1026940028308312031394008316031391018312C9
:1026A40003132008A4002108A5002208A60023087B
:1026B400A70002300310A40DA50DA60DA70DFF3E23
:1026C400031D5C2B2708F3002608F2002508F100FF
:1026D4002408F0000030F7007A30F6001230F500DC
:1026E4000030F4000A128A1105200A168A117008B3
:1026F400FF3E831603139300940187150716080001
:10270400780879040319872B882BB72BFD01FD0A60
:10271400962B01300310F80DF90DFF3E031D8C2B91
:102724000130FC007C08FD07F91F992B9A2B8B2B99
:1027340079087B02031DA02B78087A02031CA32BC3
:10274400A42BAA2B7808FA027908031CFB03FB02CA
:1027540001300310F90CF80CFF3E031DAB2B0130C4
:10276400FD02031DB62BB72B9A2B7B08F9007A08C0
:10277400F8000800D12B3030F62B3130F62B3230F4
:10278400F62B3330F62B3430F62B3530F62B36302F
:10279400F62B3730F62B3830F62B3930F62B710800
:1027A400003A0319D62BF62B7008003A0319BD2BF7
:1027B400013A0319BF2B033A0319C12B013A031938
:1027C400C32B073A0319C52B013A0319C72B033A44
:1027D4000319C92B013A0319CB2B0F3A0319CD2B3B
:1027E400013A0319CF2BF62B0800F000701CFB2BC9
:1027F400FC2B002C831203130814032C83120313E1
:102804000810F01C062C072C092C88140A2C88109C
:10281400701D0D2C0E2C102C0815112C0811F01DF8
:10282400142C152C172C8815182C8811701E1B2C91
:102834001C2C1E2C08161F2C0812F01E222C232CD4
:10284400252C8816262C8812701F292C2A2C2C2C17
:1028540008172D2C0813F01F302C312C332C88171B
:10286400342C88130800F600F201F3013F2C0130E8
:10287400F2070318F30A0030F30772087607F00032
:102884007008840083170008031D492C4A2C392C36
:10289400F401F501662C3430F100F130F000F00B56
:1028A400512CF10B512C562C74087607F00070084B
:1028B4008400831700088312031399000130F4077E
:1028C4000318F50A0030F5077508803AF00073081C
:1028D400803A7002031D702C72087402031C732C5E
:1028E400742C4D2C0800F801F9019A2C7808730710
:1028F400F6007408F5000318F50AF81F822CF50396
:102904007508F700770883120313FF007608840024
:102914000A168A1100200A168A110A168A11BC2185
:102924000A168A110130F8070318F90A0030F9076A
:1029340078087307F6007408F5000318F50AF81F01
:10294400A42CF5037508F700770883120313FF001E
:10295400760884000A168A1100200A168A11003AA1
:10296400031DB52CB62C782C0800F501F60170086F
:1029740071040319BE2CBF2CF62CF701F70ACD2CD9
:1029840001300310F00DF10DFF3E031DC32C013087
:10299400F4007408F707F11FD02CD12CC22C01309D
:1029A4000310F50DF60DFF3E031DD22C71087302C2
:1029B400031DDE2C70087202031CE12CE22CE92CAE
:1029C4007008F2027108031CF303F302751401305A
:1029D4000310F10CF00CFF3E031DEA2C0130F7024A
:1029E400031DF52CF62CD12C7608F1007508F000A7
:1029F40008000A168A1171210A168A117230F00031
:102A04000030F1000A168A1183210A168A118030D7
:102A1400F0000030F1000A168A1183210A168A1187
:102A24000330F0000030F1000A168A1183210A16DF
:102A34008A110A168A117A210A168A110A168A112B
:102A440071210A168A117230F0000030F1000A1662
:102A54008A1183210A168A118130F0000030F100B6
:102A64000A168A1183210A168A111030F0000030E8
:102A7400F1000A168A1183210A168A110A168A118C
:102A84007A210A168A110430F4000C30F300333032
:102A9400F200F20B4B2DF30B4B2DF40B4B2D522D5F
:102AA400080078300A168A115A210A168A118316E8
:102AB4000313420883160317C6008316031343083F
:102AC40083160317C70083160313440883160317DA
:102AD400C80083160313450883160317C900831619
:102AE4000313460883160317CA0083160313380812
:102AF40083160317CB0083160313390883160317B1
:102B0400CC00831603133A0883160317CD008316EB
:102B140003133B0883160317CE00831603133C08E4
:102B240083160317CF00831603133D088316031778
:102B3400D000831603133E0883160317D1008316AF
:102B440003133F0883160317D200831603132908BF
:102B5400F1002808F0000A168A11BC230A168A110B
:102B640083160317D3000A30D400C6300A168A111C
:102B740035240A168A1108006830F700E430F6009C
:102B8400F60BC22DF70BC22D00000A168A11712113
:102B94000A168A117030F0000030F1000A168A110A
:102BA40083210A168A117130F0000030F1000A16F0
:102BB4008A1183210A168A110A168A1168210A16B3
:102BC4008A117130F0000030F1000A168A11832155
:102BD4000A168A110030F000F1000A168A118222C6
:102BE4000A168A110A168A117A210A168A110A16F5
:102BF4008A1171210A168A117030F0000030F10038
:102C04000A168A1183210A168A11E130F000003075
:102C1400F1000A168A1183210A168A110830F0007D
:102C24000030F1000A168A1183210A168A11003035
:102C3400F000F1000A168A1183210A168A110A1675
:102C44008A117A210A168A111A30F700F830F60030
:102C5400F60B2A2EF70B2A2E000008000310720D23
:102C6400730DF9007908031D382E392E422E0030D9
:102C7400F3000030F2000030F1000030F000A52E27
:102C84007008F4007108F5007208F6007308F70084
:102C94001F300310F70CF60CF50CF40CFF3E031D6B
:102CA4004B2E7408F800F217FF30F005FF30F105E1
:102CB400FF30F2050030F3059630F902F91F632E58
:102CC400642E7E2E7908803A973E03186A2E6B2E66
:102CD4006C2E392E01300310F30CF20CF10CF00CB5
:102CE400FF3E031D6D2E0130F4007408F907031D27
:102CF4007C2E7D2E6C2E952E20307902031C832E83
:102D0400842E902E392E0130F4000310F00DF10DB5
:102D1400F20DF30DF40B872E0130F9027908031D2F
:102D2400942E952E852E78080319992E9A2EA52E69
:102D3400F009F109F209F309F00A0319F10A031978
:102D4400F20A0319F30A080000307005F800003095
:102D54007105F90080307205FA007F307305FB00BD
:102D64007B087A0479047804031DB92EBA2EC22E86
:102D74000030F3000030F2000030F1000030F000C9
:102D840000307405F80000307505F90080307605D0
:102D9400FA007F307705FB007B087A047904780415
:102DA400031DD52ED62EDE2E0030F7000030F6009F
:102DB4000030F5000030F400F31FE12EE22E062F60
:102DC4000030F8000030F9000030FA008030FB00D9
:102DD4007008F8027108031C710FF12EF22EF9022B
:102DE4007208031C720FF72EF82EFA027308031CE4
:102DF400730FFD2EFE2EFB027B08F3007A08F2000F
:102E04007908F1007808F000F71F092F0A2F2E2FF8
:102E14000030F8000030F9000030FA008030FB0088
:102E24007408F8027508031C750F192F1A2FF9027C
:102E34007608031C760F1F2F202FFA027708031C35
:102E4400770F252F262FFB027B08F7007A08F60060
:102E54007908F5007808F4008030F3068030F7062E
:102E640077087302031D402F76087202031D402F5A
:102E740075087102031D402F740870020318432F54
:102E8400442F462F0310472F03140800F800780836
:102E940003194D2F4E2F622FF31F512F522F622FE4
:102EA4007009FA007109FB007209FC007309FD0046
:102EB400FA0A0319FB0A0319FC0A0319FD0A6A2F0B
:102EC4007308FD007208FC007108FB007008FA002A
:102ED4007308720471047004031D712F722F7B2F09
:102EE4000030F3000030F2000030F1000030F00058
:102EF400FF2F9630F9008B2F0130F4007408F90786
:102F040001300310FD0CFC0CFB0CFA0CFF3E031DFE
:102F1400832FFE307D05031D902F912F7E2FAD2F23
:102F24000130F4007408F9070130FA07003003187F
:102F34000130FB07003003180130FC070030031890
:102F44000130FD0701300310FD0CFC0CFB0CFA0CE6
:102F5400FF3E031DA52FFF307D05031DB22FB32FA8
:102F6400922FBF2F0130F9020130F4000310FA0D43
:102F7400FB0DFC0DFD0DF40BB82FFC1BC22FC32F52
:102F8400C92F023079020318C82FC92FB42F79181A
:102F9400CC2FCD2FD52FFF30FA05FF30FB057F3026
:102FA400FC05FF30FD050310F90C7908F400F50168
:102FB400F601F70118300310F40DF50DF60DF70DB9
:102FC400FF3E031DDD2F7408FA047508FB04760820
:102FD400FC047708FD0478080319F12FF22FF72F6A
:102FE400F31FF52FF62FF72FFD177D08F3007C084C
:0C2FF400F2007B08F1007A08F0000800F1
:08400000FF3FFF3FFF3FFF3FC0
:04400E00D420FF3F7C
:00000001FF
