:100000000A128A11F32F00308A000408840A82073A
:10001000003450346F34743431343A340034503452
:100020006F34743432343A34003463346F346E34A1
:040030003A3400342A
:10061800F000700883120313930008008316031375
:10062800141C172B182B122B080064008001840A55
:1006380004060319003404061A2B0A128A1112231D
:100648000A128A11831203131308080000300A12D1
:100658008A1163230A128A1101300A128A1163234C
:100668000A128A110800F20083120313091472088F
:100678000A128A1119240A128A118312031389147F
:100688001A30F100F10B462B000083120313891076
:100698000800F300831603138712731D542B552B80
:1006A800592B7208940087155D2B7008720494000A
:1006B8008711730871048312031394000800F30070
:1006C80083120313091073080A128A1119240A12D3
:1006D8008A118312031389140B30F2006230F1007F
:1006E800F10B742BF20B742B000083120313891087
:1006F80008008316031788018901831603138710DE
:100708000711860188018901831203138601880174
:10071800890187140715F001F101F20120300A124E
:100728008A114D230A128A110800F5007503031D6A
:100738009E2B9F2BA92B74087F3EF60076080A1281
:100748008A1163230A128A11B82B02307506031D19
:10075800AE2BAF2BB82B7408BF3EF60076080A12F2
:100768008A1163230A128A110800F500F301F401C3
:10077800D02B7308750784000A128A1103200A1205
:100788008A110A128A1137230A128A110130F307D3
:100798000318F40A0030F4077308750784000A1276
:1007A8008A1103200A128A11003A031DDC2BDD2B63
:1007B800BD2B0800F32B3030182C3130182C323078
:1007C800182C3330182C3430182C3530182C36307F
:1007D800182C3730182C3830182C3930182C710850
:1007E800003A0319F82B182C7008003A0319DF2B6C
:1007F800013A0319E12B033A0319E32B013A0319D0
:10080800E52B073A0319E72B013A0319E92B033AB9
:100818000319EB2B013A0319ED2B0F3A0319EF2BB0
:10082800013A0319F12B182C0800F000701C1D2C3C
:100838001E2C222C831203130814252C8312031355
:100848000810F01C282C292C2B2C88142C2C8810F0
:10085800701D2F2C302C322C0815332C0811F01D4C
:10086800362C372C392C88153A2C8811701E3D2CC3
:100878003E2C402C0816412C0812F01E442C452C06
:10088800472C8816482C8812701F4B2C4C2C4E2C49
:1008980008174F2C0813F01F522C532C552C88176F
:1008A800562C8813080000300A128A1119240A12DB
:1008B8008A113430F500F130F400F40B612CF50B9B
:1008C800612C662C30300A128A1163230A128A11AD
:1008D8000D30F500FB30F400F40B702CF50B702C88
:1008E800752C30300A128A1163230A128A111D30BE
:1008F800F5009130F400F40B7F2CF50B7F2C303091
:100908000A128A1163230A128A1138300A128A11CC
:1009180063230A128A110C300A128A1163230A12FD
:100928008A1106300A128A1163230A128A110800F2
:10093800F601F31FA02CA12CA82CF209F309F20A46
:100948000319F30AF601F60AF11FAB2CAC2CB12CF3
:10095800F009F109F00A0319F10A70087104031982
:10096800B62CB72CE62CF501F50AC52C013003107E
:10097800F00DF10DFF3E031DBB2C0130F40074088F
:10098800F507F11FC82CC92CBA2C71087302031D76
:10099800CF2C70087202031CD22CD32CD92C7008CF
:1009A800F2027108031CF303F30201300310F10C87
:1009B800F00CFF3E031DDA2C0130F502031DE52C77
:1009C800E62CC92C76080319EA2CEB2CF02CF2093A
:1009D800F309F20A0319F30A7308F1007208F00028
:1009E800080083120313B901F81FFB2CFC2C032DFC
:1009F800F709F809F70A0319F80AB901B90AFA1F39
:100A0800062D072D102DF909FA09F90A0319FA0A12
:100A18000130FB007B08B906BA01BB0177087804EE
:100A28000319172D182D4F2DB801B80A262D01309E
:100A38000310F70DF80DFF3E031D1C2D0130FB00C0
:100A48007B08B807F81F292D2A2D1B2D013003100C
:100A5800BA0DBB0DFF3E031D2B2D78087A02031D2E
:100A6800372D77087902031C3A2D3B2D422D770844
:100A7800F9027808031CFA03FA023A140130031049
:100A8800F80CF70CFF3E031D432D0130B802031D7F
:100A98004E2D4F2D2A2D39080319532D542D592D1C
:100AA800BA09BB09BA0A0319BB0A3B08F8003A0895
:100AB800F70008000A128A117D230A128A110A1205
:100AC8008A1157240A128A118312031387100D30D2
:100AD80083120313BD00FB30BC00BC0B712DBD0B92
:100AE800712D00300A128A110C230A128A110A1277
:100AF8008A1121230A128A1183120313BC00BD0133
:100B08003C08B6003D08B7000D3083120313BD0042
:100B1800FB30BC00BC0B8E2DBD0B8E2D8312031336
:100B280087140D3083120313BD00FB30BC00BC0BCF
:100B38009B2DBD0B9B2D8312031387100D30831241
:100B48000313BD00FB30BC00BC0BA82DBD0BA82DAA
:100B580003300A128A110C230A128A110A128A1106
:100B680021230A128A1183120313BC00BD013C0819
:100B7800A0003D08A1000D3083120313BD00FB3017
:100B8800BC00BC0BC52DBD0BC52D831203138714E8
:100B98000D3083120313BD00FB30BC00BC0BD22DFB
:100BA800BD0BD22D8312031307110D3083120313CB
:100BB800BD00FB30BC00BC0BDF2DBD0BDF2D0030B2
:100BC8000A128A110C230A128A110A128A11212385
:100BD8000A128A1183120313BC00BD013C08B40039
:100BE8003D08B5000D3083120313BD00FB30BC0077
:100BF800BC0BFC2DBD0BFC2D8312031307158714AA
:100C08006430F7000030F8003708FA003608F900B9
:100C18000A128A11F5240A128A117808831203131A
:100C2800B3007708B2000A30F7000030F800370840
:100C3800F3003608F2006430F0000030F1000A12C8
:100C48008A119C240A128A117108FA007008F900A6
:100C58000A128A11F5240A128A11780883120313DA
:100C6800B1007708B0003708F3003608F2006430A6
:100C7800F0000030F1000A128A119C240A128A112D
:100C88007108FD007008FC000A30F0000030F10027
:100C98007D08F3007C08F2000A128A119C240A12CB
:100CA8008A11710883120313AF007008AE00643014
:100CB800F7000030F8003508FA003408F9000A1285
:100CC8008A11F5240A128A11780883120313AD00D9
:100CD8007708AC000A30F7000030F8003508F30058
:100CE8003408F2006430F0000030F1000A128A1172
:100CF8009C240A128A117108FA007008F9000A1275
:100D08008A11F5240A128A11780883120313AB009A
:100D18007708AA003508F3003408F2006430F000C0
:100D28000030F1000A128A119C240A128A117108F3
:100D3800FD007008FC000A30F0000030F1007D086A
:100D4800F3007C08F2000A128A119C240A128A1104
:100D5800710883120313A9007008A8006430F70013
:100D68000030F8002108FA002008F9000A128A1158
:100D7800F5240A128A11780883120313A70077084A
:100D8800A6000A30F7000030F8002108F300200818
:100D9800F2006430F0000030F1000A128A119C243D
:100DA8000A128A117108FA007008F9000A128A11E9
:100DB800F5240A128A11780883120313A50077080C
:100DC800A4002108F3002008F2006430F00000308D
:100DD800F1000A128A119C240A128A117108FD0076
:100DE8007008FC000A30F0000030F1007D08F300C4
:100DF8007C08F2000A128A119C240A128A117108CE
:100E080083120313A3007008A2000A128A112A236E
:100E18000A128A11F401F40A01300A128A1199237C
:100E28000A128A1101300A128A11B9230A128A1188
:100E3800F401F40A02300A128A1199230A128A115B
:100E4800831203133308F1003208F0000A128A11E2
:100E5800DE230A128A110A128A1137230A128A110A
:100E6800831203133108F1003008F0000A128A11C6
:100E7800DE230A128A110A128A1137230A128A11EA
:100E8800831203132F08F1002E08F0000A128A11AA
:100E9800DE230A128A110A128A1137230A128A11CA
:100EA8000730F40001300A128A1199230A128A11B4
:100EB80007300A128A11B9230A128A110730F4007E
:100EC80002300A128A1199230A128A118312031313
:100ED8002D08F1002C08F0000A128A11DE230A12EC
:100EE8008A110A128A1137230A128A1183120313EC
:100EF8002B08F1002A08F0000A128A11DE230A12D0
:100F08008A110A128A1137230A128A1183120313CB
:100F18002908F1002808F0000A128A11DE230A12B3
:100F28008A110A128A1137230A128A110D30F40025
:100F380001300A128A1199230A128A110D300A12F5
:100F48008A11B9230A128A110D30F40002300A12EC
:100F58008A1199230A128A11831203132708F100B0
:100F68002608F0000A128A11DE230A128A110A12D0
:100F78008A1137230A128A11831203132508F100F4
:100F88002408F0000A128A11DE230A128A110A12B2
:100F98008A1137230A128A11831203132308F100D6
:100FA8002208F0000A128A11DE230A128A110A1294
:100FB8008A1137230A128A11033083120313BE00E1
:100FC8000830BD007630BC00BC0BE82FBD0BE82F05
:100FD800BE0BE82F0000682D0A128A11002883131F
:100FE8002030840038300A128A1119230A128A1113
:080FF80083010A128A115E2D2B
:08400000FF3FFF3FFF3FFF3FC0
:04400E00D420FF3F7C
:00000001FF
