:060000000A128A110C280F
:10000800FE00030EF5000A08F6000A128A115229AA
:100018000A128A110F28F701F801F90183010A125F
:100028008A11C12903298316031708080138880093
:1000380083160313050801388500C33083120313A0
:100048009F05362983160317080802388800831687
:100058000313050802388500831203131F08C339E8
:1000680004389F00362983160317080804388800C7
:1000780083160313050804388500831203131F0829
:10008800C33908389F00362983160317080808382B
:1000980088008316031305080838850083120313A4
:1000A8001F08C3390C389F00362983160317080820
:1000B800103888008316031305082038850083123A
:1000C80003131F08C33910389F00362983160317F6
:1000D80008082038880083160313090801388900A6
:1000E800831203131F08C33914389F003629831657
:1000F80003170808403888008316031309080238D4
:100108008900831203131F08C33918389F00362942
:100118008316031708088038880083160313090814
:1001280004388900831203131F08C3391C389F0041
:100138003629831603170908013889008316031323
:10014800060804388600831203131F08C3392038B1
:100158009F00362983160317090802388900831679
:100168000313060808388600831203131F08C339CF
:1001780024389F0036298316031709080438890094
:1001880083160313060802388600831203131F0818
:10019800C33928389F0036298316031709080838F9
:1001A8008900831603130608103886008312031388
:1001B8001F08C3392C389F003629831603170908EE
:1001C8001038890083160313060801388600831245
:1001D80003131F08C33930389F00362983160317C5
:1001E800090820388900831603130608203886007A
:1001F800831203131F08C33934389F00362983122A
:1002080003132108003A03190A2936292008003A5D
:1002180003191728013A03192628033A031937281E
:10022800013A03194828073A03195928013A0319CA
:100238006A28033A03197B28013A03198C280F3AD4
:1002480003199D28013A0319AE28033A0319BF2858
:10025800013A0319D028073A0319E128013A03198A
:10026800F2283629831603139F131F129F12831235
:1002780003131F083F3980389F001F142030831252
:100288000313A200A20B46290000831203130C13C8
:10029800831603130C170B178B170800831203130D
:1002A8000C1F5729582966290A128A1117220A127F
:1002B8008A117108F8007008F70077088312031391
:1002C80086000C138C1D69296A29BA291412141B7B
:1002D8006E296F297329941F7229732978291308A5
:1002E800F90014139413141683160313941A7D2912
:1002F8007E299829141981298229982983120313A0
:100308001308F9008C11141683160313141C8D2975
:100318008E2988298312031313088800A630F40055
:10032800F40B94290000B729941A9B299C29B72912
:10033800141D9F29A029B729831203131308F90054
:1003480083160313141077088312031393001416EB
:10035800A630F400F40BAE2900008316031314181A
:10036800B629B729B129831203138C1176088A009C
:10037800750E8300FE0E7E0E09000A128A11DE2118
:100388000A128A11831203139F18CB29CC29C62974
:100398001A3083120313A400F730A300A30BD22949
:1003A800A40BD229D729831203139F14C6290A1232
:1003B8008A110C28831603178801890183160313F1
:1003C80086018801831203138601880150300A12BE
:1003D8008A11FB210A128A11003083120313A0002C
:1003E800A1000A128A1116200A128A110800831223
:1003F8000313A000200883160313930036308312DA
:100408000313940080308316031394000130910085
:10041800871507168B170B17831203138C11831676
:1004280003138C150800831203131E08F200F3014E
:0A0438007208F0007308F1000800DC
:08400000FF3FFF3FFF3FFF3FC0
:04400E00D420FF3F7C
:00000001FF
