:060000000A128A110E280D
:10000800FE00030E83120313AE000A08AF000A12A3
:100018008A115A290A128A1111288313433084003D
:1000280053300A128A11C4260A128A1183010A124D
:100038008A11912A0B2983160317080801388800AA
:1000480083160313050801388500C3308312031390
:100058009F053E298316031708080238880083166F
:100068000313050802388500831203131F08C339D8
:1000780004389F003E2983160317080804388800AF
:1000880083160313050804388500831203131F0819
:10009800C33908389F003E29831603170808083813
:1000A8008800831603130508083885008312031394
:1000B8001F08C3390C389F003E2983160317080808
:1000C800103888008316031305082038850083122A
:1000D80003131F08C33910389F003E2983160317DE
:1000E8000808203888008316031309080138890096
:1000F800831203131F08C33914389F003E2983163F
:1001080003170808403888008316031309080238C3
:100118008900831203131F08C33918389F003E292A
:100128008316031708088038880083160313090804
:1001380004388900831203131F08C3391C389F0031
:100148003E2983160317090801388900831603130B
:10015800060804388600831203131F08C3392038A1
:100168009F003E2983160317090802388900831661
:100178000313060808388600831203131F08C339BF
:1001880024389F003E29831603170908043889007C
:1001980083160313060802388600831203131F0808
:1001A800C33928389F003E298316031709080838E1
:1001B8008900831603130608103886008312031378
:1001C8001F08C3392C389F003E29831603170908D6
:1001D8001038890083160313060801388600831235
:1001E80003131F08C33930389F003E2983160317AD
:1001F800090820388900831603130608203886006A
:10020800831203131F08C33934389F003E29831211
:1002180003133A08003A031912293E293908003A0B
:1002280003191F28013A03192E28033A03193F28F6
:10023800013A03195028073A03196128013A0319AA
:100248007228033A03198328013A031994280F3AAC
:100258000319A528013A0319B628033A0319C72830
:10026800013A0319D828073A0319E928013A03196A
:10027800FA283E29831603139F131F129F12831215
:1002880003131F083F3980389F001F142030831242
:100298000313BB00BB0B4E290000831203130C137E
:1002A800831603130C170B178B1708000C1F5D29F7
:1002B8005E29F3290A128A11BA260A128A117108CC
:1002C80083120313D2007008D1003230AC00003022
:1002D800AD000030AA00AB00FF30A8000030A90034
:1002E8000030A600A7005208A5005108A4000A1271
:1002F8008A1163250A128A11831203132508B10093
:100308002408B0003108F1003008F0000A30F2008B
:100318000030F3000A128A11F9250A128A117108AD
:1003280083120313B8007008B7006430F600003079
:10033800F7003808F9003708F8000A128A116C2407
:100348000A128A11770883120313D0007608CF00A7
:100358000A30F6000030F7003808F3003708F200DA
:100368006430F0000030F1000A128A1129250A12BF
:100378008A117108F9007008F8000A128A116C24B1
:100388000A128A11770883120313CE007608CD006B
:100398003808F3003708F2006430F0000030F1004C
:1003A8000A128A1129250A128A1171088312031365
:1003B800B3007008B2000A30F0000030F1003308D2
:1003C800F3003208F2000A128A1129250A128A114A
:1003D800710883120313CC007008CB000C138C1E19
:1003E800F629F7298A2A1A080A128A11CC260A122B
:1003F8008A110A128A11D2260A128A118312031349
:10040800B6002B303606031D0A2A0B2A1C2A490A75
:100418004A04031D102A112A162AFF30C900003089
:10042800CA001C2A0130C9070318CA0A0030CA07C3
:100438002D303606031D212A222A312A49084A046A
:10044800031D272A282A2B2AC901CA01312AFF306D
:10045800C9070318CA0AFF30CA076430F70000301A
:10046800F8004A08FA004908F9000A128A116023BC
:100478000A128A11780883120313C8007708C70084
:100488000A30F7000030F8004A08F3004908F20083
:100498006430F0000030F1000A128A11C9230A12F0
:1004A8008A117108FA007008F9000A128A1160238B
:1004B8000A128A11780883120313C6007708C50048
:1004C8004A08F3004908F2006430F0000030F100F7
:1004D8000A128A11C9230A128A1171088312031396
:1004E800B5007008B4000A30F0000030F10035089B
:1004F800F3003408F2000A128A11C9230A128A1179
:10050800710883120313C4007008C3002F088A00FF
:100518002E0E8300FE0E7E0E09000A128A119A25FD
:100528000A128A110A128A1122240A128A118312C3
:1005380003139F18A02AA12AAF2A1A308312031383
:10054800C100F730C000C00BA72AC10BA72AAC2AEC
:10055800831203139F140A128A11AD260A128A11F4
:10056800023083120313BD0001300A128A111E26BD
:100578000A128A1101300A128A11D0250A128A1128
:10058800033083120313BD0002300A128A111E269B
:100598000A128A11831203135008BA004F08B900CF
:1005A8000A128A11B0240A128A110A128A115C26C8
:1005B8000A128A112E300A128A115C260A128A112E
:1005C800831203134E08BA004D08B9000A128A11A3
:1005D800B0240A128A110A128A115C260A128A1198
:1005E800831203134C08BA004B08B9000A128A1187
:1005F800B0240A128A110A128A115C260A128A1178
:100608000B3083120313BD0001300A128A111E2613
:100618000A128A1108300A128A11D0250A128A1180
:100628000B3083120313BD0002300A128A111E26F2
:100638000A128A11831203134808BA004708B9003E
:100648000A128A11B0240A128A110A128A115C2627
:100658000A128A11831203134608BA004508B90022
:100668000A128A11B0240A128A110A128A115C2607
:100678000A128A11831203134408BA004308B90006
:100688000A128A11B0240A128A110A128A115C26E7
:100698000A128A11063083120313C2001330C100F4
:1006A800AD30C000C00B562BC10B562BC20B562BBE
:1006B8009B2A0A128A110E2883120313A101F81F1C
:1006C800662B672B6E2BF709F809F70A0319F80A46
:1006D800A101A10AFA1F712B722B7B2BF909FA09C8
:1006E800F90A0319FA0A0130FB007B08A106A201E6
:1006F800A301770878040319822B832BBA2BA00156
:10070800A00A912B01300310F70DF80DFF3E031DD1
:10071800872B0130FB007B08A007F81F942B952B33
:10072800862B01300310A20DA30DFF3E031D962B4F
:1007380078087A02031DA22B77087902031CA52BDF
:10074800A62BAD2B7708F9027808031CFA03FA02E6
:10075800221401300310F80CF70CFF3E031DAE2BDA
:100768000130A002031DB92BBA2B952B21080319C0
:10077800BE2BBF2BC42BA209A309A20A0319A30AE3
:100788002308F8002208F7000800F601F31FCD2B14
:10079800CE2BD52BF209F309F20A0319F30AF60155
:1007A800F60AF11FD82BD92BDE2BF009F109F00A34
:1007B8000319F10A700871040319E32BE42B132CB5
:1007C800F501F50AF22B01300310F00DF10DFF3E93
:1007D800031DE82B0130F4007408F507F11FF52B11
:1007E800F62BE72B71087302031DFC2B70087202AD
:1007F800031CFF2B002C062C7008F2027108031C46
:10080800F303F30201300310F10CF00CFF3E031D5B
:10081800072C0130F502031D122C132CF62B760839
:100828000319172C182C1D2CF209F309F20A0319C5
:10083800F30A7308F1007208F000080000300A1289
:100848008A11ED240A128A11343083120313BE0070
:10085800F130BD00BD0B2E2CBE0B2E2C30300A12F1
:100868008A1140260A128A110D3083120313BE0022
:10087800FB30BD00BD0B3E2CBE0B3E2C30300A12A7
:100888008A1140260A128A111D3083120313BE00F2
:100898009030BD00BD0B4E2CBE0B4E2C00003030EE
:1008A8000A128A1140260A128A1138300A128A114D
:1008B80040260A128A110C300A128A1140260A129E
:1008C8008A1106300A128A1140260A128A11080073
:1008D800FB01FC01760877040319732C742CAB2CEC
:1008E800FD01FD0A822C01300310F60DF70DFF3EC5
:1008F800031D782C0130FA007A08FD07F71F852CB4
:10090800862C772C01300310FB0DFC0DFF3E031DD8
:10091800872C77087902031D932C76087802031C2C
:10092800962C972C9E2C7608F8027708031CF9035E
:10093800F9027B1401300310F70CF60CFF3E031D7F
:100948009F2C0130FD02031DAA2CAB2C862C7C08A1
:10095800F7007B08F6000800C52C3030EC2C31304D
:10096800EC2C3230EC2C3330EC2C3430EC2C353091
:10097800EC2C3630EC2C3730EC2C3830EC2C393071
:10098800EC2C831203133A08003A0319CC2CEC2CF4
:100998003908003A0319B12C013A0319B32C033A68
:1009A8000319B52C013A0319B72C073A0319B92CC6
:1009B800013A0319BB2C033A0319BD2C013A031958
:1009C800BF2C0F3A0319C12C013A0319C32CEC2C84
:1009D800080083120313B900391CF32CF42CF62CED
:1009E8000814F72C0810B91CFA2CFB2CFD2C8814C1
:1009F800FE2C8810391D012D022D042D0815052DFA
:100A08000811B91D082D092D0B2D88150C2D8811DD
:100A1800391E0F2D102D122D0816132D0812B91E70
:100A2800162D172D192D88161A2D8812391F1D2DD0
:100A38001E2D202D0817212D0813B91F242D252D13
:100A4800272D8817282D88130800700871040319AA
:100A58002E2D2F2D5E2DF501F50A3D2D01300310A9
:100A6800F00DF10DFF3E031D332D0130F400740825
:100A7800F507F11F402D412D322D71087302031D1A
:100A8800472D70087202031C4A2D4B2D512D7008FA
:100A9800F2027108031CF303F30201300310F10C96
:100AA800F00CFF3E031D522D0130F502031D5D2D94
:100AB8005E2D412D7308F1007208F00008008312C2
:100AC800031326082802F7002708031C270A29020F
:100AD800F80026082402F0002708031C270A25022C
:100AE800F1002A082C02F2002B08031C2B0A2D0205
:100AF800F3000A128A11F9250A128A117108FA00FC
:100B08007008F9000A128A1160230A128A118312E6
:100B180003132A087707FC002B0803182B0A780709
:100B2800FD007D08A5007C08A400080083160317B3
:100B380089018801831603138501860188018901CB
:100B48008312031385018601880189017030831699
:100B580003138F040F14003083120313B900BA0073
:100B68000A128A111E200A128A11CF308312031327
:100B7800B9000030BA000A128A119D260A128A1199
:100B8800CF3083120313B9000030BA000A128A1159
:100B980074260A128A11080083120313BE00BC01CE
:100BA800BD01EB2D3C083E0784000A128A118A26F3
:100BB8000A128A110A128A115C260A128A11013055
:100BC80083120313BC070318BD0A0030BD073C0895
:100BD8003E0784000A128A118A260A128A11003AEC
:100BE800031DF72DF82DD62D0800F401F501701C12
:100BF800FE2DFF2D052E7208F4070318F50A730859
:100C0800F50701300310F20DF30DFF3E031D062E0C
:100C180001300310F10CF00CFF3E031D0D2E70087F
:100C28007104031D182E192EFB2D7508F100740888
:100C3800F000080083120313BE003E03031D252E97
:100C4800262E302E3D087F3EBF003F080A128A112B
:100C580040260A128A113F2E02303E06031D352E09
:100C6800362E3F2E3D08BF3EBF003F080A128A11AC
:100C780040260A128A11080083120313BC000910C7
:100C88003C080A128A11ED240A128A1183120313EE
:100C980089140B3083120313BB006130BA00BA0BFE
:100CA800532EBB0B532E582E8312031389100800A2
:100CB80083120313BB0009143B080A128A11ED249E
:100CC8000A128A1183120313891419308312031329
:100CD800BA00BA0B6D2E702E831203138910080008
:100CE8008316031787158312031339088316031312
:100CF80099009A01831203139817181318168C1267
:100D0800831603138C160B178B17080006308A00FE
:100D18000408840A8207003450346F347434313440
:100D280020343A34003443345034553420343A347F
:100D38000034831603131812181583160317871522
:100D48008312031339088316031399009A0198161E
:100D5800080000300A128A1140260A128A1101304E
:100D68000A128A1140260A128A11080083120313F4
:100D78001E08F200F3017208F0007308F100080081
:100D880064008001840A0406031900340406C52E91
:100D9800F0007008831203139900080083120313EC
:040DA8001A0808001D
:08400000FF3FFF3FFF3FFF3FC0
:04400E00D420FF3F7C
:00000001FF
