:060000000A128A11DA2F3A
:10000E00F800F401F5017008F200F3017208F60031
:10001E007308F700781C142815281B287608F40797
:10002E000318F50A7708F50701300310F60DF70DE2
:10003E00FF3E031D1C280310F80C7808031D28280A
:10004E00292811287508F1007408F00008000A1616
:10005E008A11D2210A128A110A168A11B2230A12A1
:10006E008A110A128A1500200A128A110A168A119A
:10007E00B5240A128A110A168A11F7230A128A1156
:10008E000A168A113F260A128A110A128A1581232C
:10009E000A128A110A168A116E210A128A11D0309A
:1000AE00F0000030F1000A168A1180210A128A111E
:1000BE000030F000F1000A168A1180210A128A110E
:1000CE000A168A1165210A128A11D130F000003009
:1000DE00F1000A168A1180210A128A110030F000EE
:1000EE00F1000A168A1155220A128A11710883121A
:1000FE000313EF007008EE000A168A1177210A1218
:10010E008A110A168A116E210A128A11D030F00055
:10011E000030F1000A168A1180210A128A1101306C
:10012E00F0000030F1000A168A1180210A128A119D
:10013E000A168A1165210A128A11D130F000003098
:10014E00F1000A168A1180210A128A110030F0007D
:10015E00F1000A168A1155220A128A1171088316A5
:10016E000313E0007008DF000A168A1177210A12C5
:10017E008A110A168A116E210A128A11D030F000E5
:10018E000030F1000A168A1180210A128A110230FB
:10019E00F0000030F1000A168A1180210A128A112D
:1001AE000A168A1165210A128A11D130F000003028
:1001BE00F1000A168A1180210A128A110030F0000D
:1001CE00F1000A168A1155220A128A117108831635
:1001DE000313DE007008DD000A168A1177210A1259
:1001EE008A11831203136E0E0F3983160313DB006D
:1001FE00831203136F0EF03983160313DB0483127D
:10020E0003136F0E0F3983160313DC00F030DC1D61
:10021E000030DC040F30831203136E0583160313B4
:10022E00D9000030831203136F0583160313DA000F
:10023E005F0E0F39D700600EF039D704600E0F39FC
:10024E00D800F030D81D0030D8040F305F05D5002F
:10025E0000306005D6005D0E0F39D3005E0EF0390A
:10026E00D3045E0E0F39D400F030D41D0030D40408
:10027E000F305D05D10000305E05D200F401F40AA6
:10028E0001300A168A11F0210A128A1183160313FD
:10029E005408F1005308F0000A168A11F5220A12CA
:1002AE008A110A168A11A2210A128A1183160313C1
:1002BE005208F1005108F0000A168A11F5220A12AE
:1002CE008A110A168A11A2210A128A113A300A16C6
:1002DE008A11A2210A128A11831603135808F100FB
:1002EE005708F0000A168A11F5220A128A110A1608
:1002FE008A11A2210A128A11831603135608F100DD
:10030E005508F0000A168A11F5220A128A110A16E9
:10031E008A11A2210A128A113A300A168A11A221D2
:10032E000A128A11831603135C08F1005B08F000B1
:10033E000A168A11F5220A128A110A168A11A221A8
:10034E000A128A11831603135A08F1005908F00095
:10035E000A168A11F5220A128A110A168A11A22188
:10036E000A128A1147280A128A11002883120313CF
:10037E006808013E83160313A600003003180130EF
:10038E00A700AA01AB01831203136608F3006508E8
:10039E00F2006408F1006308F0000030F70000304E
:1003AE00F6000030F5000030F4000A168A119D2583
:1003BE000A128A110318E429E529072A8312031366
:1003CE00670884002D30831780000130E90069082A
:1003DE00E7076608F3006508F2006408F100630899
:1003EE00F0000A168A118A210A128A1173088312E2
:1003FE000313E6007208E5007108E4007008E300DC
:10040E000030F3000030F2000030F1000030F00058
:10041E00831203136608F7006508F6006408F500FA
:10042E006308F4000A168A119D250A128A11031810
:10043E00212A222A912A4C2A413083120313B0001A
:10044E002030AF000030AE000030AD006608B400C2
:10045E006508B3006408B2006308B1000A128A117D
:10046E0095240A128A11831203133008E6002F080E
:10047E00E5002E08E4002D08E300FF308316031379
:10048E00AA070318AB0AFF30AB07831203136608E3
:10049E00F3006508F2006408F1006308F0003F30D5
:1004AE00F7008030F6000030F5000030F4000A1638
:1004BE008A119D250A128A11031C662A672A232A8D
:1004CE00912A4130F3002030F2000030F10000306C
:1004DE00F000831203136608F7006508F60064083F
:1004EE00F5006308F4000A128A15A8210A128A116F
:1004FE00730883120313E6007208E5007108E40026
:10050E007008E300013083160313AA070318AB0A21
:10051E000030AB07831203136608F3006508F20080
:10052E006408F1006308F0004130F7002030F60057
:10053E000030F5000030F4000A168A119D250A12CB
:10054E008A110318AB2AAC2A682A831603132A08C9
:10055E002607A6002B0803182B0A2707A700013031
:10056E00A8000030A9002808F0002908F10000308A
:10057E00F11BFF30F200F30001300A128A152F2012
:10058E000A128A11730883160313A5007208A400B9
:10059E007108A3007008A200FB2A4130F30020303E
:1005AE00F2000030F1000030F0008316031325082E
:1005BE00F7002408F6002308F5002208F4000A12BA
:1005CE008A15A8210A128A11730883160313A5002F
:1005DE007208A4007108A3007008A2000130A807D9
:1005EE000318A90A0030A9072908803A83120313B9
:1005FE00E900831603132708803A83120313690256
:10060E00031D0D2B8316031326082802031C102B23
:10061E00112BD42A831603132508F7002408F6009D
:10062E002308F5002208F4004030F3000030F200F9
:10063E000030F1000030F0000A128A15A8210A12CB
:10064E008A11730883120313CA007208C900710855
:10065E00C8007008C7006608CE006508CD006408A3
:10066E00CC006308CB000A128A15A8250A128A113B
:10067E00831203134A08E6004908E5004808E4001F
:10068E004708E3006608F3006508F2006408F1000D
:10069E006308F0004130F7002030F6000030F5001E
:1006AE000030F4000A168A119D250A128A11031CC5
:1006BE00612B622B742B3F3083120313E6008030C4
:1006CE00E5000030E4000030E30001308316031330
:1006DE00AA070318AB0A0030AB0783160313AB1F30
:1006EE00792B7A2BC92B83120313670884003030C1
:1006FE00831780000130E9006908E7076708840066
:10070E002E3080000130E9006908E70783160313D5
:10071E00A71F922B932B9B2B26082A02AA00270891
:10072E00031C270A2B02AB00FF30A800FF30A900E4
:10073E00B32B8312031367088400303083178000B5
:10074E000130E9006908E707FF3083160313A80795
:10075E000318A90AFF30A9072B08803A8312031346
:10076E00E900831603132908803A831203136902E2
:10077E00031DC52B8316031328082A02031CC82B3E
:10078E00C92BA02B83160313A801A901782C831261
:10079E0003136608F3006508F2006408F1006308AD
:1007AE00F0000A168A1127250A128A11710883167B
:1007BE000313A1007008A0008312031367088400BE
:1007CE00831603132008303E8317800001308312F6
:1007DE000313E9006908E707831603132B0829069C
:1007EE00031DFB2B2A082806031DFE2BFF2B092CAD
:1007FE0083120313670884002E3080000130E90055
:10080E006908E707831603132008F0002108F1009A
:10081E000030F11BFF30F200F30001300A128A158E
:10082E002F200A128A11730883160313A50072086B
:10083E00A4007108A3007008A200250883120313F8
:10084E00DE0083160313240883120313DD008316C0
:10085E000313230883120313DC00831603132208E9
:10086E0083120313DB006608E2006508E1006408EA
:10087E00E0006308DF000A168A1131220A128A117B
:10088E00831203135E08E6005D08E5005C08E400D1
:10089E005B08E3004130B0002030AF000030AE0006
:1008AE000030AD006608B4006508B3006408B200FD
:1008BE006308B1000A128A1195240A128A11831252
:1008CE0003133008E6002F08E5002E08E4002D087B
:1008DE00E300013083160313A8070318A90A00309A
:1008EE00A9072908803A83120313E900831603131C
:1008FE002708803A831203136902031D8A2C83167C
:10090E00031326082802031C8D2C8E2CCE2B83124B
:10091E0003136708840083178001080083120313F2
:10092E0030088039BA003008B5003507C000AF1F57
:10093E00A12CA22CA32C401440080319A72CA82CE0
:10094E00B72C400A031DAC2CAD2CB52C0030B000DA
:10095E000030AF000030AE000030AD00AF17BF2C3E
:10096E000030B0000030AF000030AE000030AD00FF
:10097E0034088039B5003508BA063408B500350795
:10098E00BF00B31FCB2CCC2CCD2C3F143F0803192A
:10099E00D12CD22CE12C3F0A031DD62CD72CDF2CC8
:1009AE000030B4000030B3000030B2000030B100AF
:1009BE00B317E92C0030B4000030B3000030B200A1
:1009CE000030B1003F080319ED2CEE2CF32C40083B
:1009DE00031DF22CF32CFC2C0030B0000030AF00C5
:1009EE000030AE000030AD00D92F2D08F0003308D6
:1009FE000A128A1107200A128A1171088312031330
:100A0E00C6007008C5004508B500B601B701B801AB
:100A1E003808BE003708BD003608BC003508BB00DC
:100A2E004608B500B601B701B8013808C40037084A
:100A3E00C3003608C2003508C1002E08F000320887
:100A4E000A128A1107200A128A11710883120313DF
:100A5E00C6007008C5004508B500B601B701B8015B
:100A6E003508BB07360803110318013E0319402D44
:100A7E00BC07370803110318013E0319472DBD07A4
:100A8E00380803110318013E03194E2DBE07460800
:100A9E00B500B601B701B8013508C1073608031114
:100AAE000318013E03195C2DC20737080311031802
:100ABE00013E0319632DC307380803110318013EC5
:100ACE0003196A2DC4072F08F00031080A128A1183
:100ADE0007200A128A11710883120313C6007008C8
:100AEE00C5004508B500B601B701B8013508BB070A
:100AFE00360803110318013E0319862DBC0737086B
:100B0E0003110318013E03198D2DBD07380803117B
:100B1E000318013E0319942DBE074608B500B60111
:100B2E00B701B8013508C107360803110318013E95
:100B3E000319A22DC207370803110318013E03192A
:100B4E00A92DC307380803110318013E0319B02D50
:100B5E00C4070830B5000310BB0DBC0DBD0DBE0D96
:100B6E00B50BB22D2E08F00031080A128A1107209B
:100B7E000A128A11710883120313C6007008C50089
:100B8E004508B5004608B600B701B8013508BB07E1
:100B9E00360803110318013E0319D62DBC0737087A
:100BAE0003110318013E0319DD2DBD07380803118B
:100BBE000318013E0319E42DBE072D08F00032087C
:100BCE000A128A1107200A128A117108831203135E
:100BDE00C6007008C5004508B5004608B600B70146
:100BEE00B8013508BB07360803110318013E031977
:100BFE00012EBC07370803110318013E0319082EF6
:100C0E00BD07380803110318013E03190F2EBE0746
:100C1E000830B5000310BB0DBC0DBD0DBE0DB50BE0
:100C2E00112E2D08F00031080A128A1107200A121F
:100C3E008A11710883120313C6007008C500450897
:100C4E00B5004608B600B701B8013508BB0736082F
:100C5E0003110318013E0319352EBC073708031183
:100C6E000318013E03193C2EBD0738080311031863
:100C7E00013E0319432EBE072E08F00033080A1258
:100C8E008A1107200A128A11710883120313C600F3
:100C9E007008C5004508B5004608B600B701B80192
:100CAE003508C107360803110318013E0319602EDB
:100CBE00C207370803110318013E0319672EC30735
:100CCE00380803110318013E03196E2EC4072F08AE
:100CDE00F00032080A128A1107200A128A117108CE
:100CEE0083120313C6007008C5004508B5004608F8
:100CFE00B600B701B8013508C1073608031103184D
:100D0E00013E03198B2EC207370803110318013E4B
:100D1E000319922EC307380803110318013E031955
:100D2E00992EC4072F08F00033080A128A110720E3
:100D3E000A128A11710883120313C6007008C500C7
:100D4E004508B5004608B600B701B80108300310D3
:100D5E00B50DB60DB70DB80DFF3E031DAE2E350801
:100D6E00C107360803110318013E0319BF2EC2072F
:100D7E00370803110318013E0319C62EC30738089E
:100D8E0003110318013E0319CD2EC4073B08B5000D
:100D9E003C08B6003D08B7003E08B80018300310F6
:100DAE00B80CB70CB60CB50CFF3E031DD62E35088D
:100DBE00C107360803110318013E0319E72EC207B7
:100DCE00370803110318013E0319EE2EC307380826
:100DDE0003110318013E0319F52EC4070830B500A0
:100DEE000310BB0DBC0DBD0DBE0DB50BF72E40088F
:100DFE003F07B500B601B60D3508823EC500360870
:100E0E000318013EFF3EC600292F0130B500031026
:100E1E00C10DC20DC30DC40DB50B0E2FBE1F182F65
:100E2E00192F1A2F41140130B5000310BB0DBC0D44
:100E3E00BD0DBE0DB50B1C2FFF30C5070318C60A1E
:100E4E00FF30C607C31F2C2F2D2F0C2FBF01BE1F27
:100E5E00312F322F4E2FFF303B05B500FF303C05B2
:100E6E00B600FF303D05B7007F303E05B8003808AC
:100E7E003704360435040319452F462F492FBF0179
:100E8E00BF0A4E2F411C4C2F4D2F4E2F462F3F0881
:100E9E000319522F532F842F0130C107003003182E
:100EAE000130C207003003180130C30700300318A9
:100EBE000130C407441C642F652F842F4108B500F0
:100ECE004208B6004308B7004408B8000130B90024
:100EDE00380DB80CB70CB60CB50CB90B6F2F380813
:100EEE00C4003708C3003608C2003508C1000130FF
:100EFE00C5070318C60A0030C6074608803AFF0029
:100F0E0080307F02031D8D2FFF304502031C902F72
:100F1E00912F9C2F7F3083120313C4008030C300A7
:100F2E000030C2000030C100CD2F831203134608DB
:100F3E00803AFF0080307F02031DA72F013045024B
:100F4E000318AA2FAB2FB72F003083120313C40040
:100F5E000030C3000030C2000030C100BA01CD2FF6
:100F6E00831203134508C000FF30C105FF30C205D0
:100F7E007F30C3050030C405401CC62FC72FC82FB5
:100F8E00C3174008B5000310350CC4003A08B5006D
:100F9E003508C4044408B0004308AF004208AE0050
:100FAE004108AD00080083120313EA01EB01EC01C6
:100FBE00ED01EE01EF018313C1308400E1300A161A
:100FCE008A115D210A128A11831790308400F03045
:100FDE000A168A115D210A128A11103084007030AF
:100FEE000A168A115D210A128A1183010A128A11C8
:100FFE002E286830F300E430F200F20B0428F30BD5
:10100E00042800000A168A116E210A128A15703001
:10101E00F0000030F1000A168A1180210A128A159A
:10102E00BA30F0000030F1000A168A1180210A123F
:10103E008A150A168A1177210A128A154130F30091
:10104E00EE30F200F20B2928F30B292800000800DD
:10105E00F80078080319342835284928F31F382852
:10106E00392849287009FA007109FB007209FC0041
:10107E007309FD00FA0A0319FB0A0319FC0A031986
:10108E00FD0A51287308FD007208FC007108FB0070
:10109E007008FA007308720471047004031D582856
:1010AE00592862280030F3000030F2000030F100C1
:1010BE000030F000E6289630F90072280130F40076
:1010CE007408F90701300310FD0CFC0CFB0CFA0C34
:1010DE00FF3E031D6A28FE307D05031D7728782804
:1010EE00652894280130F4007408F9070130FA07D6
:1010FE00003003180130FB07003003180130FC07E5
:10110E00003003180130FD0701300310FD0CFC0CFC
:10111E00FB0CFA0CFF3E031D8C28FF307D05031DD2
:10112E0099289A287928A6280130F9020130F4006E
:10113E000310FA0DFB0DFC0DFD0DF40B9F28FC1B8F
:10114E00A928AA28B028023079020318AF28B0289F
:10115E009B287918B328B428BC28FF30FA05FF3035
:10116E00FB057F30FC05FF30FD050310F90C7908F7
:10117E00F400F501F601F70118300310F40DF50D2A
:10118E00F60DF70DFF3E031DC4287408FA0475080A
:10119E00FB047608FC047708FD0478080319D828A8
:1011AE00D928DE28F31FDC28DD28DE28FD177D0870
:1011BE00F3007C08F2007B08F1007A08F0000800CA
:1011CE0083120313AD002130A900932925302E067A
:1011DE000319F228F328FD282D0884002E08831702
:1011EE0080000130A5002508AD079329A801042928
:1011FE00C030A5002508A8041E290130A007FF3025
:10120E00200784000A168A1100200A128A15AE00E1
:10121E00A500A6012608003A0319162993292508C8
:10122E00003A0319A329753A0319FF2893292908AF
:10123E00840083130008AA00840A0008AB00023061
:10124E00A5002508A907AE01AE0A2E08A5002507A0
:10125E00013E84000A168A1100200A128A15A60081
:10126E000A168A1100200A128A15A70027082B02D7
:10127E00031D432926082A0203184629472948290F
:10128E0052290130A5002508AE0705302E06031D94
:10129E00512952292C292E08AC008A290A30F8002F
:1012AE000030F9002C08A5002507013E84000A161F
:1012BE008A1100200A128A15F0000A168A110020DF
:1012CE000A128A15F1002B08F3002A08F2000A16FA
:1012DE008A116E230A128A157108FB007008FA0033
:1012EE000A168A11BB220A128A157808303E83121A
:1012FE000313AE002D0884002E08831780000130E2
:10130E00A5002508AD07FF30A5002508AC072C0A5F
:10131E00031D9229932955290130A007FF3020077C
:10132E0084000A168A1100200A128A15AE002E08B1
:10133E00031DA229A329ED282D08840083178001FF
:10134E0008007708803983120313A4007708F80089
:10135E007807AB00F61FB429B529B6292B142B0834
:10136E000319BA29BB29CB292B0A031DBF29C02972
:10137E00C8290030F7000030F6000030F5000030CC
:10138E00F400F617F701D3290030F7000030F6000D
:10139E000030F5000030F40073088039F80078084A
:1013AE00A4067308F8007807AC00F21FDF29E029C5
:1013BE00E1292C142C080319E529E629F6292C0A13
:1013CE00031DEA29EB29F3290030F3000030F20067
:1013DE000030F1000030F000F217F301FE2900306A
:1013EE00F3000030F2000030F1000030F00073081E
:1013FE00720471047004031D052A062A1F2A003088
:10140E00F7000030F6000030F5000030F4008030B8
:10141E00F6047F30F7042408F8007808F7047708FC
:10142E00F3007608F2007508F1007408F000802BC6
:10143E002B08031D232A242A2D2A0030F300003006
:10144E00F2000030F1000030F000802B2B08F80085
:10145E00F9017908FB002C087802FA00031CFB0343
:10146E007A087F3EA5007B080318013E003EA600C9
:10147E007708A3007608A2007508A1007408A000E2
:10148E000030F7000030F6000030F5000030F400B8
:10149E000030AA000030A9000030A8000030A700DC
:1014AE00AC01A92A2C0803195D2A5E2A7E2A013076
:1014BE00F8000310A00DA10DA20DA30DF80B602ACC
:1014CE000130F8000310F40DF50DF60DF70DF80BC5
:1014DE00692AAA1F732A742A752A74140130F80017
:1014EE000310A70DA80DA90DAA0DF80B772A7308E6
:1014FE002302031D8C2A72082202031D8C2A7108F6
:10150E002102031D8C2A70082002031C8F2A902AA8
:10151E00A52A2A177008A0027108031C710F982AB9
:10152E00992AA1027208031C720F9E2A9F2AA202F8
:10153E007308031C730FA42AA52AA3020130F80016
:10154E007808AC071A302C02031CAE2AAF2A592A8F
:10155E0023082204210420040319B62AB72AD62A06
:10156E002714D62A0130F8000310F40DF50DF60DF0
:10157E00F70DF80BBB2AAA1FC52AC62AC72A741450
:10158E000130F8000310A70DA80DA90DAA0DF80B38
:10159E00C92AFF30A5070318A60AFF30A607F61FB3
:1015AE00D92ADA2AB92AAC01AA1FDE2ADF2AFB2A97
:1015BE00FF302705F800FF302805F900FF30290518
:1015CE00FA007F302A05FB007B087A047904780440
:1015DE000319F22AF32AF62AAC01AC0AFB2A741C70
:1015EE00F92AFA2AFB2AF32A2C080319FF2A002BC0
:1015FE00312B0130F407003003180130F5070030AD
:10160E0003180130F607003003180130F707771C76
:10161E00112B122B312B7408F8007508F90076087F
:10162E00FA007708FB000130FC007B0DFB0CFA0C76
:10163E00F90CF80CFC0B1C2B7B08F7007A08F60053
:10164E007908F5007808F4000130A5070318A60AFA
:10165E000030A6072608803AFF0080307F02031D67
:10166E003A2BFF302502031C3D2B3E2B4C2BFF301B
:10167E0083120313A5000030A6000030F7000030DF
:10168E00F6000030F5000030F40083120313260834
:10169E00803AFF0080307F02031D572B0130250258
:1016AE0003185A2B5B2B682B83120313A501A6017B
:1016BE000030F7000030F6000030F5000030F40086
:1016CE00A401831203132508AB002B1C6F2B702B68
:1016DE00722BF617762B7F30F8007808F6052B085C
:1016EE00F8000310780CF7002408F8007808F704C7
:1016FE00162A08000A168A116E210A128A157230ED
:10170E00F0000030F1000A168A1180210A128A15A3
:10171E008C30F0000030F1000A168A1180210A1276
:10172E008A150A168A1165210A128A157330F0007D
:10173E000030F1000A168A1180210A128A15003033
:10174E00F000F1000A168A1155220A128A15700845
:10175E0083160313C9000030F000F1000A168A1137
:10176E0055220A128A15700883160313CA00003018
:10177E00F000F1000A168A1155220A128A15700815
:10178E0083160313CB000130F0000030F1000A166F
:10179E008A1155220A128A15700883160313CC007B
:1017AE000A168A1177210A128A15831603134A081C
:1017BE0083120313E300E401E501E6016608F3007A
:1017CE006508F2006408F1006308F00000300A12A8
:1017DE008A152F200A128A15730883120313ED003F
:1017EE007208EC007108EB007008EA004330B0009C
:1017FE008030AF000030AE000030AD006D08B40098
:10180E006C08B3006B08B2006A08B1000A128A11A4
:10181E0095240A128A15831203133008ED002F083F
:10182E00EC002E08EB002D08EA006D08CA006C08CB
:10183E00C9006B08C8006A08C7008316031349085D
:10184E0083120313E300E401E501E6016608F300E9
:10185E006508F2006408F1006308F00001300A1216
:10186E008A152F200A128A15730883120313CE00CD
:10187E007208CD007108CC007008CB000A128A15D0
:10188E00A8250A128A15831203134A08ED00490887
:10189E00EC004808EB004708EA00831603134C08D7
:1018AE0083120313E300E401E501E6016608F30089
:1018BE006508F2006408F1006308F00000300A12B7
:1018CE008A152F200A128A15730883160313C8006F
:1018DE007208C7007108C6007008C5004330831235
:1018EE000313B0008030AF000030AE000030AD000A
:1018FE0083160313480883120313B40083160313CD
:10190E00470883120313B30083160313460883128A
:10191E000313B20083160313450883120313B10099
:10192E000A128A1195240A128A158312031330089B
:10193E0083160313C800831203132F088316031391
:10194E00C700831203132E0883160313C6008312D7
:10195E0003132D0883160313C500480883120313BF
:10196E00CA0083160313470883120313C900831694
:10197E000313460883120313C80083160313450886
:10198E0083120313C700831603134B08831203132A
:10199E00E300E401E501E6016608F3006508F200E4
:1019AE006408F1006308F00001300A128A152F2036
:1019BE000A128A15730883120313CE007208CD0023
:1019CE007108CC007008CB000A128A15A8250A12DD
:1019DE008A15831203134A0883160313C800831251
:1019EE000313490883160313C70083120313480811
:1019FE0083160313C60083120313470883160313BB
:101A0E00C500480883120313DE008316031347082C
:101A1E0083120313DD008316031346088312031388
:101A2E00DC0083160313450883120313DB006D08D5
:101A3E00E2006C08E1006B08E0006A08DF000A169D
:101A4E008A1131220A128A15831203135E08831635
:101A5E000313C400831203135D0883160313C3001C
:101A6E00831203135C0883160313C200831203133D
:101A7E005B0883160313C1000B3083120313A000FF
:101A8E006D08A4006C08A3006B08A2006A08A100F0
:101A9E0090300A128A15E7200A128A150B3083122B
:101AAE000313A00083160313480883120313A40024
:101ABE0083160313470883120313A300831603131D
:101ACE00460883120313A2008316031345088312DC
:101ADE000313A10040300A128A15E7200A128A1554
:101AEE000B3083120313A0008316031344088312D2
:101AFE000313A40083160313430883120313A300D6
:101B0E0083160313420883120313A20083160313D2
:101B1E00410883120313A10010300A128A15E72020
:101B2E000A128A15F401F40A02300A168A11F021FB
:101B3E000A128A1590300A168A1110220A128A1574
:101B4E000800831203134A088039D7004A08CF00D1
:101B5E004F07D900C91FB42DB52DB62D59145908EC
:101B6E000319BA2DBB2DCB2D590A031DBF2DC02D28
:101B7E00C82D0030CA000030C9000030C800003047
:101B8E00C700C917CA01D32D0030CA000030C900E2
:101B9E000030C8000030C7004E088039D800580801
:101BAE0057060319DB2DDC2DDD2D57174E08CF0000
:101BBE004F07D800CD1FE42DE52DE62D58145808FB
:101BCE000319EA2DEB2DFB2D580A031DEF2DF02DD9
:101BDE00F82D0030CE000030CD000030CC000030AB
:101BEE00CB00CD17CE01032E0030CE000030CD003D
:101BFE000030CC000030CB00590858020318082ED4
:101C0E00092E2F2E571F0C2E0D2E112E8030CF0089
:101C1E004F08D7065908DA005808D9005A08D800D4
:101C2E004708DA004B08C7005A08CB004808DA000C
:101C3E004C08C8005A08CC004908DA004D08C90003
:101C4E005A08CD004A08DA004E08CA005A08CE00DB
:101C5E00DA015808CF00D0015008D20059084F02BF
:101C6E00D100031CD2035208803AFF0080307F025D
:101C7E00031D432E1A305102031C462E472E7E2E74
:101C8E00831203134A08490448044704031D502EC7
:101C9E00522E0130532E0030DA000030CA000030D0
:101CAE00C9000030C8000030C7005808D900862E81
:101CBE005A1C622E632E6A2E5A08CF0003104F0C48
:101CCE000138DA006C2E0310DA0C471C6F2E702EC2
:101CDE00712EDA170130CF004A0DCA0CC90CC80C90
:101CEE00C70CCF0B732E0130CF004F08D9078312CC
:101CFE00031358085902031C852E862E5F2E571B80
:101D0E00892E8A2ED32E5908031D8E2E8F2E982E95
:101D1E000030CA000030C9000030C8000030C700D3
:101D2E00FF2F4B08C7074C0803110318013E031978
:101D3E00A12EC8074D0803110318013E0319A82E42
:101D4E00C9074E0803110318013E0319AF2ECA0727
:101D5E004A1CB22EB32E872F5A1CB62EB72EBE2E6D
:101D6E005A08CF0003104F0C0138DA00C02E0310B2
:101D7E00DA0C471CC32EC42EC52EDA170130CF0045
:101D8E004A0DCA0CC90CC80CC70CCF0BC72E01309C
:101D9E00CF004F08D907872F4A08803AFF004E0818
:101DAE00803A7F02031DE52E4D084902031DE52EE4
:101DBE004C084802031DE52E4B0847020318E82E77
:101DCE00E92E412FFF30CF00FF30D000FF30D10081
:101DDE00FF30D2004B08D3004C08D4004D08D5007C
:101DEE004E08D6004708D3024808031C480F002FA0
:101DFE00012FD4024908031C490F062F072FD502C5
:101E0E004A08031C4A0F0C2F0D2FD6025308CF077A
:101E1E0054080318540F142F152FD0075508031804
:101E2E00550F1A2F1B2FD10756080318560AD20723
:101E3E005208CA005108C9005008C8004F08C70010
:101E4E008030CF004F08D706DA09DA0A5A08031D88
:101E5E00312F322F4F2F0130C707003003180130BA
:101E6E00C807003003180130C907003003180130CD
:101E7E00CA074F2F4B08C7024C08031C4C0FC80251
:101E8E004D08031C4D0FC9024E08031C4E0FCA020B
:101E9E004A08490448044704031D562F572F832F21
:101EAE005A08031D5B2F5C2F832F0030CA000030B1
:101EBE00C9000030C8000030C700FF2F0130CF002E
:101ECE000310C70DC80DC90DCA0DCF0B672FDA1F32
:101EDE00712F722F732F47145A1C762F772F7A2F4C
:101EEE000314DA0D7C2F0310DA0D59080319802F15
:101EFE00812F832F0130D902C91F862F872F652F7F
:101F0E00D801DA1F8B2F8C2F9A2F5A087F3903197D
:101F1E00912F922F952FD801D80A9A2F471C982FC0
:101F2E00992F9A2F922F580803199E2F9F2FD32F38
:101F3E000130C707003003180130C80700300318FE
:101F4E000130C907003003180130CA074A1CB02FF0
:101F5E00B12FD32F4708CF004808D0004908D10031
:101F6E004A08D2000130D300520DD20CD10CD00C45
:101F7E00CF0CD30BBB2F5208CA005108C900500812
:101F8E00C8004F08C700590A0319CE2FCF2FD32FE1
:101F9E000130CF004F08D907590A0319D72FD82F70
:101FAE00DD2F5908031DDC2FDD2FEB2F0030CA006B
:101FBE000030C9000030C8000030C7005908031DAA
:101FCE00E92FEA2FEB2FD701591CEE2FEF2FF12F10
:101FDE00C917F52F7F30CF004F08C9055908CF001C
:101FEE0003104F0CCA00D71FFD2FFE2FFF2FCA174D
:101FFE00080010308A000408840A82070034013475
:10200E0000340A34003464340034E83403341034B9
:08201E00273425347534003429
:1022BA0064008001840A04060319003404065E29B6
:1022CA000A168A1195210A168A1183160313911484
:1022DA0008000A168A1195210A168A118316031311
:1022EA00111408000A168A1195210A168A118316F2
:1022FA000313111508000A168A1195210A168A1164
:10230A00700883120313930008007308720471049F
:10231A00700403199129922994298030F306080040
:10232A008316031314199A299B29952911081F3911
:10233A00031DA029A12995290800F200831203137D
:10234A00091472080A168A1130230A168A1183128E
:10235A00031389141A30F100F10BB129000083121A
:10236A00031389100800F30083120313091073087A
:10237A000A168A1130230A168A1183120313891442
:10238A000B30F2006230F100F10BC929F20BC929B6
:10239A0000008312031389100800831603178801AB
:1023AA008901831603138501860188018901831235
:1023BA00031385018601880189010030A3000130D9
:1023CA00A2008630A100A030A0000A168A1183223A
:1023DA000A168A110800F5007503031DF529F62966
:1023EA00002A74087F3EF60076080A168A11B82178
:1023FA000A168A110F2A02307506031D052A062AB3
:10240A000F2A7408BF3EF60076080A168A11B82108
:10241A000A168A110800F600F401F501252A740843
:10242A007607F3007308840000080A168A11A221AD
:10243A000A168A110130F4070318F50A0030F50765
:10244A0074087607F3007308840083170008031DD5
:10245A002F2A302A142A0800803083120313DE063A
:10246A006208CA006108C9006008C8005F08C7009E
:10247A005E08CE005D08CD005C08CC005B08CB008E
:10248A000A128A15A8250A168A11831203134A0802
:10249A00DE004908DD004808DC004708DB000800C8
:1024AA000A168A1195210A168A11831603139115A1
:1024BA000A168A1195210A168A1183120313130820
:1024CA00F200F3017208F4007308F5000A168A1183
:1024DA0095210A168A1170037104031D752A762A3A
:1024EA007A2A8316031391127D2A831603139116EF
:1024FA0011167508F1007408F000080028308312DC
:10250A000313940083160313910183120313200803
:10251A00A4002108A5002208A6002308A70002306B
:10252A000310A40DA50DA60DA70DFF3E031D952AA8
:10253A002708F3002608F2002508F1002408F00015
:10254A000030F7007A30F6001230F5000030F4005F
:10255A000A168A114F240A168A117008FF3E83163A
:10256A000313930094018715071608007808790465
:10257A000319C02AC12AF02AFD01FD0ACF2A013017
:10258A000310F80DF90DFF3E031DC52A0130FC00AA
:10259A007C08FD07F91FD22AD32AC42A79087B02AC
:1025AA00031DD92A78087A02031CDC2ADD2AE32AC9
:1025BA007808FA027908031CFB03FB0201300310B6
:1025CA00F90CF80CFF3E031DE42A0130FD02031D3D
:1025DA00EF2AF02AD32A7B08F9007A08F8000800C3
:1025EA000A2B30302F2B31302F2B32302F2B333018
:1025FA002F2B34302F2B35302F2B36302F2B3730D3
:10260A002F2B38302F2B39302F2B7108003A031912
:10261A000F2B2F2B7008003A0319F62A013A0319D7
:10262A00F82A033A0319FA2A013A0319FC2A073A43
:10263A000319FE2A013A0319002B033A0319022B44
:10264A00013A0319042B0F3A0319062B013A03190D
:10265A00082B2F2B0800F000701C342B352B392B3C
:10266A008312031308143C2B831203130810F01C63
:10267A003F2B402B422B8814432B8810701D462B6E
:10268A00472B492B08154A2B0811F01D4D2B4E2BB1
:10269A00502B8815512B8811701E542B552B572BF4
:1026AA000816582B0812F01E5B2B5C2B5E2B881623
:1026BA005F2B8812701F622B632B652B0817662B02
:1026CA000813F01F692B6A2B6C2B88176D2B881344
:1026DA000800F501F601700871040319752B762BB1
:1026EA00AD2BF701F70A842B01300310F00DF10D21
:1026FA00FF3E031D7A2B0130F4007408F707F11F1F
:10270A00872B882B792B01300310F50DF60DFF3E30
:10271A00031D892B71087302031D952B7008720221
:10272A00031C982B992BA02B7008F2027108031C2A
:10273A00F303F302751401300310F10CF00CFF3EA1
:10274A00031DA12B0130F702031DAC2BAD2B882BE7
:10275A007608F1007508F000080000300A168A11A0
:10276A0030230A168A113430F500F130F400F40BE4
:10277A00BC2BF50BBC2BC12B30300A168A11B821A1
:10278A000A168A110D30F500FB30F400F40BCB2B3E
:10279A00F50BCB2BD02B30300A168A11B8210A162A
:1027AA008A111D30F5009130F400F40BDA2BF50B89
:1027BA00DA2B30300A168A11B8210A168A113830F3
:1027CA000A168A11B8210A168A110C300A168A11B9
:1027DA00B8210A168A1106300A168A11B8210A1671
:1027EA008A1108000A168A116E210A168A11723095
:1027FA00F0000030F1000A168A1180210A168A11A7
:10280A008030F0000030F1000A168A1180210A1681
:10281A008A110330F0000030F1000A168A11802173
:10282A000A168A110A168A1177210A168A110A16B5
:10283A008A116E210A168A117230F0000030F100F6
:10284A000A168A1180210A168A118130F000003096
:10285A00F1000A168A1180210A168A111030F00036
:10286A000030F1000A168A1180210A168A110A1606
:10287A008A1177210A168A110430F4000C30F30009
:10288A003330F200F20B472CF30B472CF40B472C96
:10289A004E2C08000030FC000030FB000030FA002B
:1028AA000030F900730872047104700403195E2C75
:1028BA005F2CAC2CFD01FD0A6F2C0130F8000310CF
:1028CA00F00DF10DF20DF30DF80B642C0130F80048
:1028DA007808FD07F31F722C732C622C0130F80064
:1028EA000310F90DFA0DFB0DFC0DF80B752C73088E
:1028FA007702031D8A2C72087602031D8A2C71083E
:10290A007502031D8A2C70087402031C8D2C8E2CF0
:10291A009D2C7008F4027108031C710FF5027208ED
:10292A00031C720FF6027308031C730FF702791463
:10293A0001300310F30CF20CF10CF00CFF3E031DF6
:10294A009E2C0130FD02031DAB2CAC2C732C7C0891
:10295A00F3007B08F2007A08F1007908F000080019
:10296A006830F700E430F600F60BB92CF70BB92CF7
:10297A0000000A168A116E210A168A117030F000B8
:10298A000030F1000A168A1180210A168A11713064
:10299A00F0000030F1000A168A1180210A168A1105
:1029AA000A168A1165210A168A117130F000003060
:1029BA00F1000A168A1180210A168A110030F000E5
:1029CA00F1000A168A1155220A168A110A168A1164
:1029DA0077210A168A110A168A116E210A168A1195
:1029EA007030F0000030F1000A168A1180210A16B0
:1029FA008A11E130F0000030F1000A168A118021B4
:102A0A000A168A110830F0000030F1000A168A11FD
:102A1A0080210A168A110030F000F1000A168A1184
:102A2A0080210A168A110A168A1177210A168A1132
:102A3A001A30F700F830F600F60B212DF70B212D8E
:102A4A00000008000310720D730DF9007908031DC8
:102A5A002F2D302D392D0030F3000030F2000030D8
:102A6A00F1000030F0009C2D7008F4007108F500A8
:102A7A007208F6007308F7001F300310F70CF60C03
:102A8A00F50CF40CFF3E031D422D7408F800F217F2
:102A9A00FF30F005FF30F105FF30F2050030F30595
:102AAA009630F902F91F5A2D5B2D752D7908803A57
:102ABA00973E0318612D622D632D302D01300310CE
:102ACA00F30CF20CF10CF00CFF3E031D642D0130E7
:102ADA00F4007408F907031D732D742D632D8C2DD2
:102AEA0020307902031C7A2D7B2D872D302D013061
:102AFA00F4000310F00DF10DF20DF30DF40B7E2D21
:102B0A000130F9027908031D8B2D8C2D7C2D780854
:102B1A000319902D912D9C2DF009F109F209F30961
:102B2A00F00A0319F10A0319F20A0319F30A080051
:102B3A0000307005F80000307105F9008030720528
:102B4A00FA007F307305FB007B087A047904780465
:102B5A00031DB02DB12DB92D0030F3000030F20065
:102B6A000030F1000030F00000307405F800003049
:102B7A007505F90080307605FA007F307705FB008D
:102B8A007B087A0479047804031DCC2DCD2DD52D2C
:102B9A000030F7000030F6000030F5000030F40095
:102BAA00F31FD82DD92DFD2D0030F8000030F90083
:102BBA000030FA008030FB007008F8027108031C2C
:102BCA00710FE82DE92DF9027208031C720FEE2D20
:102BDA00EF2DFA027308031C730FF42DF52DFB0277
:102BEA007B08F3007A08F2007908F1007808F0000F
:102BFA00F71F002E012E252E0030F8000030F900B4
:102C0A000030FA008030FB007408F8027508031CD3
:102C1A00750F102E112EF9027608031C760F162E48
:102C2A00172EFA027708031C770F1C2E1D2EFB02A3
:102C3A007B08F7007A08F6007908F5007808F400AE
:102C4A008030F3068030F70677087302031D372EAB
:102C5A0076087202031D372E75087102031D372E7E
:102C6A007408700203183A2E3B2E3D2E03103E2E96
:102C7A00031408000A168A116E210A168A11703086
:102C8A00F0000030F1000A168A1180210A168A1112
:102C9A00AC30F0000030F1000A168A1180210A16C1
:102CAA008A113330F0000030F1000A168A118021AF
:102CBA000A168A110030F000F1000A168A118021E2
:102CCA000A168A110A168A1177210A168A11D03031
:102CDA0083160313AD00C930AC00AC0B722EAD0BDA
:102CEA00722E0A168A116E210A168A117030F000A5
:102CFA000030F1000A168A1180210A168A117130F1
:102D0A00F0000030F1000A168A1180210A168A1191
:102D1A000A168A1165210A168A117130F0000030EC
:102D2A00F1000A168A1180210A168A110030F00071
:102D3A00F1000A168A1155220A168A110A168A11F0
:102D4A0077210A168A110A168A116E210A168A1121
:102D5A007130F0000030F1000A168A1180210A163B
:102D6A008A110130F0000030F1000A168A1155224A
:102D7A000A168A11700883160313BA000130F0008C
:102D8A000030F1000A168A1155220A168A117008B3
:102D9A0083160313BB000130F0000030F1000A165D
:102DAA008A1155220A168A11700883160313BC0069
:102DBA000130F0000030F1000A168A1155220A1675
:102DCA008A11700883160313BD000130F000003029
:102DDA00F1000A168A1155220A168A1170088316FA
:102DEA000313BE000130F0000030F1000A168A1108
:102DFA0055220A168A11700883160313BF00003081
:102E0A00F000F1000A168A1155220A168A11700872
:102E1A0083160313C0000A168A1177210A168A112B
:102E2A00831603133F08AC00AD01AE01AF013E08A3
:102E3A00B000B1013008B100B0013008B200310869
:102E4A00B300B401B5013D080F39B600B701B801A6
:102E5A00B90110300310B60DB70DB80DB90DFF3E0C
:102E6A00031D2F2F3608B20737080318370F3E2FD6
:102E7A003F2FB30738080318380F442F452FB407DC
:102E8A0039080318390AB5073208AC07330803189A
:102E9A00330F502F512FAD0734080318340F562F14
:102EAA00572FAE0735080318350AAF072F08F30066
:102EBA002E08F2002D08F1002C08F00000300A124A
:102ECA008A152F200A168A11730883160313D00055
:102EDA007208CF007108CE007008CD00C23083128C
:102EEA000313CA004830C9000030C8000030C700C8
:102EFA004330B0004830AF000030AE000030AD00C3
:102F0A004930F3008030F2000030F1000030F00068
:102F1A00831603135008F7004F08F6004E08F50011
:102F2A004D08F4000A128A15A8210A168A11730894
:102F3A0083120313B4007208B3007108B200700858
:102F4A00B1000A128A1195240A168A1183120313F0
:102F5A003008CE002F08CD002E08CC002D08CB005B
:102F6A000A128A15A8250A168A11831203134A0817
:102F7A0083160313D000831203134908831603131D
:102F8A00CF0083120313480883160313CE0083125B
:102F9A000313470883160313CD0050088312031343
:102FAA00E600831603134F0883120313E500831602
:102FBA0003134E0883120313E400831603134D0808
:102FCA0083120313E300C030E7000230E8000A125C
:102FDA008A11BD210A168A110C30F40001300A1632
:102FEA008A11F0210A168A11C0300A168A11102293
:062FFA000A168A1108000E
:08400000FF3FFF3FFF3FFF3FC0
:04400E00D420FF3F7C
:00000001FF
